{"contracts/Staking.sol":{"Staking":{"abi":[{"inputs":[{"internalType":"address","name":"tokenAddress","type":"address"},{"internalType":"address","name":"priceConsumerAddress","type":"address"}],"stateMutability":"nonpayable","type":"constructor"},{"inputs":[{"internalType":"address","name":"owner","type":"address"}],"name":"OwnableInvalidOwner","type":"error"},{"inputs":[{"internalType":"address","name":"account","type":"address"}],"name":"OwnableUnauthorizedAccount","type":"error"},{"inputs":[],"name":"ReentrancyGuardReentrantCall","type":"error"},{"inputs":[{"internalType":"address","name":"token","type":"address"}],"name":"SafeERC20FailedOperation","type":"error"},{"anonymous":false,"inputs":[{"indexed":true,"internalType":"address","name":"previousOwner","type":"address"},{"indexed":true,"internalType":"address","name":"newOwner","type":"address"}],"name":"OwnershipTransferred","type":"event"},{"anonymous":false,"inputs":[{"indexed":true,"internalType":"address","name":"user","type":"address"},{"indexed":false,"internalType":"uint256","name":"amount","type":"uint256"}],"name":"RewardsClaimed","type":"event"},{"anonymous":false,"inputs":[{"indexed":false,"internalType":"uint256","name":"amount","type":"uint256"}],"name":"RewardsFunded","type":"event"},{"anonymous":false,"inputs":[{"indexed":true,"internalType":"address","name":"user","type":"address"},{"indexed":false,"internalType":"uint256","name":"amount","type":"uint256"}],"name":"Staked","type":"event"},{"anonymous":false,"inputs":[{"indexed":true,"internalType":"address","name":"user","type":"address"},{"indexed":false,"internalType":"uint256","name":"amount","type":"uint256"},{"indexed":false,"internalType":"uint256","name":"rewardsPaid","type":"uint256"}],"name":"Unstaked","type":"event"},{"inputs":[],"name":"BASE_APY_BPS","outputs":[{"internalType":"uint256","name":"","type":"uint256"}],"stateMutability":"view","type":"function"},{"inputs":[],"name":"BASIS_POINTS","outputs":[{"internalType":"uint256","name":"","type":"uint256"}],"stateMutability":"view","type":"function"},{"inputs":[],"name":"BONUS_APY_BPS","outputs":[{"internalType":"uint256","name":"","type":"uint256"}],"stateMutability":"view","type":"function"},{"inputs":[],"name":"DISCOUNT_APY_BPS","outputs":[{"internalType":"uint256","name":"","type":"uint256"}],"stateMutability":"view","type":"function"},{"inputs":[],"name":"YEAR_IN_SECONDS","outputs":[{"internalType":"uint256","name":"","type":"uint256"}],"stateMutability":"view","type":"function"},{"inputs":[],"name":"claimRewards","outputs":[],"stateMutability":"nonpayable","type":"function"},{"inputs":[],"name":"eduToken","outputs":[{"internalType":"contract IERC20","name":"","type":"address"}],"stateMutability":"view","type":"function"},{"inputs":[{"internalType":"uint256","name":"amount","type":"uint256"}],"name":"fundRewards","outputs":[],"stateMutability":"nonpayable","type":"function"},{"inputs":[],"name":"getCurrentApyBps","outputs":[{"internalType":"uint256","name":"","type":"uint256"}],"stateMutability":"view","type":"function"},{"inputs":[{"internalType":"address","name":"account","type":"address"}],"name":"getPendingRewards","outputs":[{"internalType":"uint256","name":"","type":"uint256"}],"stateMutability":"view","type":"function"},{"inputs":[{"internalType":"address","name":"account","type":"address"}],"name":"getStakedBalance","outputs":[{"internalType":"uint256","name":"","type":"uint256"}],"stateMutability":"view","type":"function"},{"inputs":[{"internalType":"address","name":"account","type":"address"}],"name":"getUserInfo","outputs":[{"components":[{"internalType":"uint256","name":"amount","type":"uint256"},{"internalType":"uint256","name":"pendingRewards","type":"uint256"},{"internalType":"uint256","name":"lastUpdate","type":"uint256"}],"internalType":"struct Staking.UserInfo","name":"","type":"tuple"}],"stateMutability":"view","type":"function"},{"inputs":[],"name":"owner","outputs":[{"internalType":"address","name":"","type":"address"}],"stateMutability":"view","type":"function"},{"inputs":[],"name":"priceConsumer","outputs":[{"internalType":"contract PriceConsumer","name":"","type":"address"}],"stateMutability":"view","type":"function"},{"inputs":[],"name":"renounceOwnership","outputs":[],"stateMutability":"nonpayable","type":"function"},{"inputs":[],"name":"rewardReserve","outputs":[{"internalType":"uint256","name":"","type":"uint256"}],"stateMutability":"view","type":"function"},{"inputs":[{"internalType":"uint256","name":"amount","type":"uint256"}],"name":"stake","outputs":[],"stateMutability":"nonpayable","type":"function"},{"inputs":[],"name":"totalStaked","outputs":[{"internalType":"uint256","name":"","type":"uint256"}],"stateMutability":"view","type":"function"},{"inputs":[{"internalType":"address","name":"newOwner","type":"address"}],"name":"transferOwnership","outputs":[],"stateMutability":"nonpayable","type":"function"},{"inputs":[{"internalType":"uint256","name":"amount","type":"uint256"}],"name":"unstake","outputs":[],"stateMutability":"nonpayable","type":"function"}],"evm":{"bytecode":{"linkReferences":{},"object":"60c060405234801561000f575f80fd5b50604051610fea380380610fea83398101604081905261002e91610190565b338061005457604051631e4fbdf760e01b81525f60048201526024015b60405180910390fd5b61005d81610126565b5060017f9b779b17422d0df92223018b32b4d1fa46e071723d6817e2486d003becc55f00556001600160a01b0382166100c85760405162461bcd60e51b815260206004820152600d60248201526c24b73b30b634b2103a37b5b2b760991b604482015260640161004b565b6001600160a01b03811661010f5760405162461bcd60e51b815260206004820152600e60248201526d496e76616c6964206f7261636c6560901b604482015260640161004b565b6001600160a01b039182166080521660a0526101c1565b5f80546001600160a01b038381166001600160a01b0319831681178455604051919092169283917f8be0079c531659141344cd1fd0a4f28419497f9722a3daafe3b4186f6b6457e09190a35050565b80516001600160a01b038116811461018b575f80fd5b919050565b5f80604083850312156101a1575f80fd5b6101aa83610175565b91506101b860208401610175565b90509250929050565b60805160a051610de56102055f395f81816101880152610abf01525f8181610218015281816104170152818161057b0152818161069801526107930152610de55ff3fe608060405234801561000f575f80fd5b5060043610610127575f3560e01c806393707a19116100a9578063d7ab56571161006e578063d7ab565714610281578063e174d20914610289578063e1f1c4a714610292578063f2fde38b1461029b578063f6ed2017146102ae575f80fd5b806393707a191461024a5780639d1446d41461025d578063a694fc3a14610265578063cab64bcd14610278578063d006601a14610281575f80fd5b8063715018a6116100ef578063715018a6146101f75780637847ea53146101ff578063817b1cd21461020a5780638d878889146102135780638da5cb5b1461023a575f80fd5b80632e17de781461012b578063372500ab146101405780633a02a42d14610148578063461a758c146101835780636386c1c7146101c2575b5f80fd5b61013e610139366004610c89565b6102c1565b005b61013e610494565b610170610156366004610ca0565b6001600160a01b03165f9081526003602052604090205490565b6040519081526020015b60405180910390f35b6101aa7f000000000000000000000000000000000000000000000000000000000000000081565b6040516001600160a01b03909116815260200161017a565b6101d56101d0366004610ca0565b6105f1565b604080518251815260208084015190820152918101519082015260600161017a565b61013e610653565b6101706301e1338081565b61017060015481565b6101aa7f000000000000000000000000000000000000000000000000000000000000000081565b5f546001600160a01b03166101aa565b61013e610258366004610c89565b610664565b61017061070c565b61013e610273366004610c89565b61071a565b61017060025481565b61017060c881565b6101706103e881565b61017061271081565b61013e6102a9366004610ca0565b610806565b6101706102bc366004610ca0565b610840565b6102c9610900565b5f81116102f15760405162461bcd60e51b81526004016102e890610ccd565b60405180910390fd5b6102fa3361091b565b335f90815260036020526040902080548211156103595760405162461bcd60e51b815260206004820152601b60248201527f496e73756666696369656e74207374616b65642062616c616e6365000000000060448201526064016102e8565b60018101546002548111156103b05760405162461bcd60e51b815260206004820152601b60248201527f496e73756666696369656e74207265776172642072657365727665000000000060448201526064016102e8565b82825f015f8282546103c29190610d16565b925050819055508260015f8282546103da9190610d16565b90915550505f60018301819055600280548392906103f9908490610d16565b9091555061043e90503361040d8386610d2f565b6001600160a01b037f00000000000000000000000000000000000000000000000000000000000000001691906109c5565b604080518481526020810183905233917f7fc4727e062e336010f2c282598ef5f14facb3de68cf8195c2f23e1454b2b74e910160405180910390a2505061049160015f80516020610d9083398151915255565b50565b61049c610900565b6104a53361091b565b335f9081526003602052604090206001810154806104fc5760405162461bcd60e51b81526020600482015260146024820152734e6f207265776172647320617661696c61626c6560601b60448201526064016102e8565b80600254101561054e5760405162461bcd60e51b815260206004820152601b60248201527f496e73756666696369656e74207265776172642072657365727665000000000060448201526064016102e8565b5f82600101819055508060025f8282546105689190610d16565b909155506105a290506001600160a01b037f00000000000000000000000000000000000000000000000000000000000000001633836109c5565b60405181815233907ffc30cddea38e2bf4d6ea7d3f9ed3b6ad7f176419f4963bd81318067a4aee73fe9060200160405180910390a250506105ef60015f80516020610d9083398151915255565b565b61061260405180606001604052805f81526020015f81526020015f81525090565b506001600160a01b03165f90815260036020908152604091829020825160608101845281548152600182015492810192909252600201549181019190915290565b61065b6109ff565b6105ef5f610a2b565b61066c6109ff565b5f811161068b5760405162461bcd60e51b81526004016102e890610ccd565b6106c06001600160a01b037f000000000000000000000000000000000000000000000000000000000000000016333084610a7a565b8060025f8282546106d19190610d2f565b90915550506040518181527fe42dde25409a3e8c7c119c1c722610d9e9bd96e73e3cead774863c9ffdd870d69060200160405180910390a150565b5f610715610ab6565b905090565b610722610900565b5f81116107415760405162461bcd60e51b81526004016102e890610ccd565b61074a3361091b565b335f9081526003602052604081208054839290610768908490610d2f565b925050819055508060015f8282546107809190610d2f565b909155506107bb90506001600160a01b037f000000000000000000000000000000000000000000000000000000000000000016333084610a7a565b60405181815233907f9e71bc8eea02a63969f509818f2dafb9254532904319f9dbda79b67bd34a5f3d9060200160405180910390a261049160015f80516020610d9083398151915255565b61080e6109ff565b6001600160a01b03811661083757604051631e4fbdf760e01b81525f60048201526024016102e8565b61049181610a2b565b6001600160a01b0381165f90815260036020908152604080832081516060810183528154815260018201549381019390935260020154908201819052158061088757508051155b15610896576020015192915050565b5f8160400151426108a79190610d16565b90505f6127106301e133806108ba610ab6565b85516108c7908690610d42565b6108d19190610d42565b6108db9190610d59565b6108e59190610d59565b90508083602001516108f79190610d2f565b95945050505050565b610908610b8b565b60025f80516020610d9083398151915255565b6001600160a01b0381165f9081526003602052604081206002810154909103610948574260029091015550565b8054156109bb575f8160020154426109609190610d16565b90505f6127106301e13380610973610ab6565b8554610980908690610d42565b61098a9190610d42565b6109949190610d59565b61099e9190610d59565b905080836001015f8282546109b39190610d2f565b909155505050505b4260029091015550565b6109d28383836001610bba565b6109fa57604051635274afe760e01b81526001600160a01b03841660048201526024016102e8565b505050565b5f546001600160a01b031633146105ef5760405163118cdaa760e01b81523360048201526024016102e8565b5f80546001600160a01b038381166001600160a01b0319831681178455604051919092169283917f8be0079c531659141344cd1fd0a4f28419497f9722a3daafe3b4186f6b6457e09190a35050565b610a88848484846001610c1c565b610ab057604051635274afe760e01b81526001600160a01b03851660048201526024016102e8565b50505050565b5f806103e890507f00000000000000000000000000000000000000000000000000000000000000006001600160a01b0316638e15f4736040518163ffffffff1660e01b8152600401602060405180830381865afa925050508015610b37575060408051601f3d908101601f19168201909252610b3491810190610d78565b60015b610b4057919050565b6445d964b8008112610b5e57610b5760c883610d2f565b9150610b85565b5f81138015610b7257506422ecb25c008113155b15610b8557610b8260c883610d16565b91505b50919050565b5f80516020610d90833981519152546002036105ef57604051633ee5aeb560e01b815260040160405180910390fd5b60405163a9059cbb60e01b5f8181526001600160a01b038616600452602485905291602083604481808b5af1925060015f51148316610c10578383151615610c04573d5f823e3d81fd5b5f873b113d1516831692505b60405250949350505050565b6040516323b872dd60e01b5f8181526001600160a01b038781166004528616602452604485905291602083606481808c5af1925060015f51148316610c78578383151615610c6c573d5f823e3d81fd5b5f883b113d1516831692505b604052505f60605295945050505050565b5f60208284031215610c99575f80fd5b5035919050565b5f60208284031215610cb0575f80fd5b81356001600160a01b0381168114610cc6575f80fd5b9392505050565b6020808252818101527f416d6f756e74206d7573742062652067726561746572207468616e207a65726f604082015260600190565b634e487b7160e01b5f52601160045260245ffd5b81810381811115610d2957610d29610d02565b92915050565b80820180821115610d2957610d29610d02565b8082028115828204841417610d2957610d29610d02565b5f82610d7357634e487b7160e01b5f52601260045260245ffd5b500490565b5f60208284031215610d88575f80fd5b505191905056fe9b779b17422d0df92223018b32b4d1fa46e071723d6817e2486d003becc55f00a2646970667358221220044328178ca5a422378b33e2b5eb27a6ac77cf3e8b06840db78d82741cca9ff964736f6c634300081a0033","opcodes":"PUSH1 0xC0 PUSH1 0x40 MSTORE CALLVALUE DUP1 ISZERO PUSH2 0xF JUMPI PUSH0 DUP1 REVERT JUMPDEST POP PUSH1 0x40 MLOAD PUSH2 0xFEA CODESIZE SUB DUP1 PUSH2 0xFEA DUP4 CODECOPY DUP2 ADD PUSH1 0x40 DUP2 SWAP1 MSTORE PUSH2 0x2E SWAP2 PUSH2 0x190 JUMP JUMPDEST CALLER DUP1 PUSH2 0x54 JUMPI PUSH1 0x40 MLOAD PUSH4 0x1E4FBDF7 PUSH1 0xE0 SHL DUP2 MSTORE PUSH0 PUSH1 0x4 DUP3 ADD MSTORE PUSH1 0x24 ADD JUMPDEST PUSH1 0x40 MLOAD DUP1 SWAP2 SUB SWAP1 REVERT JUMPDEST PUSH2 0x5D DUP2 PUSH2 0x126 JUMP JUMPDEST POP PUSH1 0x1 PUSH32 0x9B779B17422D0DF92223018B32B4D1FA46E071723D6817E2486D003BECC55F00 SSTORE PUSH1 0x1 PUSH1 0x1 PUSH1 0xA0 SHL SUB DUP3 AND PUSH2 0xC8 JUMPI PUSH1 0x40 MLOAD PUSH3 0x461BCD PUSH1 0xE5 SHL DUP2 MSTORE PUSH1 0x20 PUSH1 0x4 DUP3 ADD MSTORE PUSH1 0xD PUSH1 0x24 DUP3 ADD MSTORE PUSH13 0x24B73B30B634B2103A37B5B2B7 PUSH1 0x99 SHL PUSH1 0x44 DUP3 ADD MSTORE PUSH1 0x64 ADD PUSH2 0x4B JUMP JUMPDEST PUSH1 0x1 PUSH1 0x1 PUSH1 0xA0 SHL SUB DUP2 AND PUSH2 0x10F JUMPI PUSH1 0x40 MLOAD PUSH3 0x461BCD PUSH1 0xE5 SHL DUP2 MSTORE PUSH1 0x20 PUSH1 0x4 DUP3 ADD MSTORE PUSH1 0xE PUSH1 0x24 DUP3 ADD MSTORE PUSH14 0x496E76616C6964206F7261636C65 PUSH1 0x90 SHL PUSH1 0x44 DUP3 ADD MSTORE PUSH1 0x64 ADD PUSH2 0x4B JUMP JUMPDEST PUSH1 0x1 PUSH1 0x1 PUSH1 0xA0 SHL SUB SWAP2 DUP3 AND PUSH1 0x80 MSTORE AND PUSH1 0xA0 MSTORE PUSH2 0x1C1 JUMP JUMPDEST PUSH0 DUP1 SLOAD PUSH1 0x1 PUSH1 0x1 PUSH1 0xA0 SHL SUB DUP4 DUP2 AND PUSH1 0x1 PUSH1 0x1 PUSH1 0xA0 SHL SUB NOT DUP4 AND DUP2 OR DUP5 SSTORE PUSH1 0x40 MLOAD SWAP2 SWAP1 SWAP3 AND SWAP3 DUP4 SWAP2 PUSH32 0x8BE0079C531659141344CD1FD0A4F28419497F9722A3DAAFE3B4186F6B6457E0 SWAP2 SWAP1 LOG3 POP POP JUMP JUMPDEST DUP1 MLOAD PUSH1 0x1 PUSH1 0x1 PUSH1 0xA0 SHL SUB DUP2 AND DUP2 EQ PUSH2 0x18B JUMPI PUSH0 DUP1 REVERT JUMPDEST SWAP2 SWAP1 POP JUMP JUMPDEST PUSH0 DUP1 PUSH1 0x40 DUP4 DUP6 SUB SLT ISZERO PUSH2 0x1A1 JUMPI PUSH0 DUP1 REVERT JUMPDEST PUSH2 0x1AA DUP4 PUSH2 0x175 JUMP JUMPDEST SWAP2 POP PUSH2 0x1B8 PUSH1 0x20 DUP5 ADD PUSH2 0x175 JUMP JUMPDEST SWAP1 POP SWAP3 POP SWAP3 SWAP1 POP JUMP JUMPDEST PUSH1 0x80 MLOAD PUSH1 0xA0 MLOAD PUSH2 0xDE5 PUSH2 0x205 PUSH0 CODECOPY PUSH0 DUP2 DUP2 PUSH2 0x188 ADD MSTORE PUSH2 0xABF ADD MSTORE PUSH0 DUP2 DUP2 PUSH2 0x218 ADD MSTORE DUP2 DUP2 PUSH2 0x417 ADD MSTORE DUP2 DUP2 PUSH2 0x57B ADD MSTORE DUP2 DUP2 PUSH2 0x698 ADD MSTORE PUSH2 0x793 ADD MSTORE PUSH2 0xDE5 PUSH0 RETURN INVALID PUSH1 0x80 PUSH1 0x40 MSTORE CALLVALUE DUP1 ISZERO PUSH2 0xF JUMPI PUSH0 DUP1 REVERT JUMPDEST POP PUSH1 0x4 CALLDATASIZE LT PUSH2 0x127 JUMPI PUSH0 CALLDATALOAD PUSH1 0xE0 SHR DUP1 PUSH4 0x93707A19 GT PUSH2 0xA9 JUMPI DUP1 PUSH4 0xD7AB5657 GT PUSH2 0x6E JUMPI DUP1 PUSH4 0xD7AB5657 EQ PUSH2 0x281 JUMPI DUP1 PUSH4 0xE174D209 EQ PUSH2 0x289 JUMPI DUP1 PUSH4 0xE1F1C4A7 EQ PUSH2 0x292 JUMPI DUP1 PUSH4 0xF2FDE38B EQ PUSH2 0x29B JUMPI DUP1 PUSH4 0xF6ED2017 EQ PUSH2 0x2AE JUMPI PUSH0 DUP1 REVERT JUMPDEST DUP1 PUSH4 0x93707A19 EQ PUSH2 0x24A JUMPI DUP1 PUSH4 0x9D1446D4 EQ PUSH2 0x25D JUMPI DUP1 PUSH4 0xA694FC3A EQ PUSH2 0x265 JUMPI DUP1 PUSH4 0xCAB64BCD EQ PUSH2 0x278 JUMPI DUP1 PUSH4 0xD006601A EQ PUSH2 0x281 JUMPI PUSH0 DUP1 REVERT JUMPDEST DUP1 PUSH4 0x715018A6 GT PUSH2 0xEF JUMPI DUP1 PUSH4 0x715018A6 EQ PUSH2 0x1F7 JUMPI DUP1 PUSH4 0x7847EA53 EQ PUSH2 0x1FF JUMPI DUP1 PUSH4 0x817B1CD2 EQ PUSH2 0x20A JUMPI DUP1 PUSH4 0x8D878889 EQ PUSH2 0x213 JUMPI DUP1 PUSH4 0x8DA5CB5B EQ PUSH2 0x23A JUMPI PUSH0 DUP1 REVERT JUMPDEST DUP1 PUSH4 0x2E17DE78 EQ PUSH2 0x12B JUMPI DUP1 PUSH4 0x372500AB EQ PUSH2 0x140 JUMPI DUP1 PUSH4 0x3A02A42D EQ PUSH2 0x148 JUMPI DUP1 PUSH4 0x461A758C EQ PUSH2 0x183 JUMPI DUP1 PUSH4 0x6386C1C7 EQ PUSH2 0x1C2 JUMPI JUMPDEST PUSH0 DUP1 REVERT JUMPDEST PUSH2 0x13E PUSH2 0x139 CALLDATASIZE PUSH1 0x4 PUSH2 0xC89 JUMP JUMPDEST PUSH2 0x2C1 JUMP JUMPDEST STOP JUMPDEST PUSH2 0x13E PUSH2 0x494 JUMP JUMPDEST PUSH2 0x170 PUSH2 0x156 CALLDATASIZE PUSH1 0x4 PUSH2 0xCA0 JUMP JUMPDEST PUSH1 0x1 PUSH1 0x1 PUSH1 0xA0 SHL SUB AND PUSH0 SWAP1 DUP2 MSTORE PUSH1 0x3 PUSH1 0x20 MSTORE PUSH1 0x40 SWAP1 KECCAK256 SLOAD SWAP1 JUMP JUMPDEST PUSH1 0x40 MLOAD SWAP1 DUP2 MSTORE PUSH1 0x20 ADD JUMPDEST PUSH1 0x40 MLOAD DUP1 SWAP2 SUB SWAP1 RETURN JUMPDEST PUSH2 0x1AA PUSH32 0x0 DUP2 JUMP JUMPDEST PUSH1 0x40 MLOAD PUSH1 0x1 PUSH1 0x1 PUSH1 0xA0 SHL SUB SWAP1 SWAP2 AND DUP2 MSTORE PUSH1 0x20 ADD PUSH2 0x17A JUMP JUMPDEST PUSH2 0x1D5 PUSH2 0x1D0 CALLDATASIZE PUSH1 0x4 PUSH2 0xCA0 JUMP JUMPDEST PUSH2 0x5F1 JUMP JUMPDEST PUSH1 0x40 DUP1 MLOAD DUP3 MLOAD DUP2 MSTORE PUSH1 0x20 DUP1 DUP5 ADD MLOAD SWAP1 DUP3 ADD MSTORE SWAP2 DUP2 ADD MLOAD SWAP1 DUP3 ADD MSTORE PUSH1 0x60 ADD PUSH2 0x17A JUMP JUMPDEST PUSH2 0x13E PUSH2 0x653 JUMP JUMPDEST PUSH2 0x170 PUSH4 0x1E13380 DUP2 JUMP JUMPDEST PUSH2 0x170 PUSH1 0x1 SLOAD DUP2 JUMP JUMPDEST PUSH2 0x1AA PUSH32 0x0 DUP2 JUMP JUMPDEST PUSH0 SLOAD PUSH1 0x1 PUSH1 0x1 PUSH1 0xA0 SHL SUB AND PUSH2 0x1AA JUMP JUMPDEST PUSH2 0x13E PUSH2 0x258 CALLDATASIZE PUSH1 0x4 PUSH2 0xC89 JUMP JUMPDEST PUSH2 0x664 JUMP JUMPDEST PUSH2 0x170 PUSH2 0x70C JUMP JUMPDEST PUSH2 0x13E PUSH2 0x273 CALLDATASIZE PUSH1 0x4 PUSH2 0xC89 JUMP JUMPDEST PUSH2 0x71A JUMP JUMPDEST PUSH2 0x170 PUSH1 0x2 SLOAD DUP2 JUMP JUMPDEST PUSH2 0x170 PUSH1 0xC8 DUP2 JUMP JUMPDEST PUSH2 0x170 PUSH2 0x3E8 DUP2 JUMP JUMPDEST PUSH2 0x170 PUSH2 0x2710 DUP2 JUMP JUMPDEST PUSH2 0x13E PUSH2 0x2A9 CALLDATASIZE PUSH1 0x4 PUSH2 0xCA0 JUMP JUMPDEST PUSH2 0x806 JUMP JUMPDEST PUSH2 0x170 PUSH2 0x2BC CALLDATASIZE PUSH1 0x4 PUSH2 0xCA0 JUMP JUMPDEST PUSH2 0x840 JUMP JUMPDEST PUSH2 0x2C9 PUSH2 0x900 JUMP JUMPDEST PUSH0 DUP2 GT PUSH2 0x2F1 JUMPI PUSH1 0x40 MLOAD PUSH3 0x461BCD PUSH1 0xE5 SHL DUP2 MSTORE PUSH1 0x4 ADD PUSH2 0x2E8 SWAP1 PUSH2 0xCCD JUMP JUMPDEST PUSH1 0x40 MLOAD DUP1 SWAP2 SUB SWAP1 REVERT JUMPDEST PUSH2 0x2FA CALLER PUSH2 0x91B JUMP JUMPDEST CALLER PUSH0 SWAP1 DUP2 MSTORE PUSH1 0x3 PUSH1 0x20 MSTORE PUSH1 0x40 SWAP1 KECCAK256 DUP1 SLOAD DUP3 GT ISZERO PUSH2 0x359 JUMPI PUSH1 0x40 MLOAD PUSH3 0x461BCD PUSH1 0xE5 SHL DUP2 MSTORE PUSH1 0x20 PUSH1 0x4 DUP3 ADD MSTORE PUSH1 0x1B PUSH1 0x24 DUP3 ADD MSTORE PUSH32 0x496E73756666696369656E74207374616B65642062616C616E63650000000000 PUSH1 0x44 DUP3 ADD MSTORE PUSH1 0x64 ADD PUSH2 0x2E8 JUMP JUMPDEST PUSH1 0x1 DUP2 ADD SLOAD PUSH1 0x2 SLOAD DUP2 GT ISZERO PUSH2 0x3B0 JUMPI PUSH1 0x40 MLOAD PUSH3 0x461BCD PUSH1 0xE5 SHL DUP2 MSTORE PUSH1 0x20 PUSH1 0x4 DUP3 ADD MSTORE PUSH1 0x1B PUSH1 0x24 DUP3 ADD MSTORE PUSH32 0x496E73756666696369656E742072657761726420726573657276650000000000 PUSH1 0x44 DUP3 ADD MSTORE PUSH1 0x64 ADD PUSH2 0x2E8 JUMP JUMPDEST DUP3 DUP3 PUSH0 ADD PUSH0 DUP3 DUP3 SLOAD PUSH2 0x3C2 SWAP2 SWAP1 PUSH2 0xD16 JUMP JUMPDEST SWAP3 POP POP DUP2 SWAP1 SSTORE POP DUP3 PUSH1 0x1 PUSH0 DUP3 DUP3 SLOAD PUSH2 0x3DA SWAP2 SWAP1 PUSH2 0xD16 JUMP JUMPDEST SWAP1 SWAP2 SSTORE POP POP PUSH0 PUSH1 0x1 DUP4 ADD DUP2 SWAP1 SSTORE PUSH1 0x2 DUP1 SLOAD DUP4 SWAP3 SWAP1 PUSH2 0x3F9 SWAP1 DUP5 SWAP1 PUSH2 0xD16 JUMP JUMPDEST SWAP1 SWAP2 SSTORE POP PUSH2 0x43E SWAP1 POP CALLER PUSH2 0x40D DUP4 DUP7 PUSH2 0xD2F JUMP JUMPDEST PUSH1 0x1 PUSH1 0x1 PUSH1 0xA0 SHL SUB PUSH32 0x0 AND SWAP2 SWAP1 PUSH2 0x9C5 JUMP JUMPDEST PUSH1 0x40 DUP1 MLOAD DUP5 DUP2 MSTORE PUSH1 0x20 DUP2 ADD DUP4 SWAP1 MSTORE CALLER SWAP2 PUSH32 0x7FC4727E062E336010F2C282598EF5F14FACB3DE68CF8195C2F23E1454B2B74E SWAP2 ADD PUSH1 0x40 MLOAD DUP1 SWAP2 SUB SWAP1 LOG2 POP POP PUSH2 0x491 PUSH1 0x1 PUSH0 DUP1 MLOAD PUSH1 0x20 PUSH2 0xD90 DUP4 CODECOPY DUP2 MLOAD SWAP2 MSTORE SSTORE JUMP JUMPDEST POP JUMP JUMPDEST PUSH2 0x49C PUSH2 0x900 JUMP JUMPDEST PUSH2 0x4A5 CALLER PUSH2 0x91B JUMP JUMPDEST CALLER PUSH0 SWAP1 DUP2 MSTORE PUSH1 0x3 PUSH1 0x20 MSTORE PUSH1 0x40 SWAP1 KECCAK256 PUSH1 0x1 DUP2 ADD SLOAD DUP1 PUSH2 0x4FC JUMPI PUSH1 0x40 MLOAD PUSH3 0x461BCD PUSH1 0xE5 SHL DUP2 MSTORE PUSH1 0x20 PUSH1 0x4 DUP3 ADD MSTORE PUSH1 0x14 PUSH1 0x24 DUP3 ADD MSTORE PUSH20 0x4E6F207265776172647320617661696C61626C65 PUSH1 0x60 SHL PUSH1 0x44 DUP3 ADD MSTORE PUSH1 0x64 ADD PUSH2 0x2E8 JUMP JUMPDEST DUP1 PUSH1 0x2 SLOAD LT ISZERO PUSH2 0x54E JUMPI PUSH1 0x40 MLOAD PUSH3 0x461BCD PUSH1 0xE5 SHL DUP2 MSTORE PUSH1 0x20 PUSH1 0x4 DUP3 ADD MSTORE PUSH1 0x1B PUSH1 0x24 DUP3 ADD MSTORE PUSH32 0x496E73756666696369656E742072657761726420726573657276650000000000 PUSH1 0x44 DUP3 ADD MSTORE PUSH1 0x64 ADD PUSH2 0x2E8 JUMP JUMPDEST PUSH0 DUP3 PUSH1 0x1 ADD DUP2 SWAP1 SSTORE POP DUP1 PUSH1 0x2 PUSH0 DUP3 DUP3 SLOAD PUSH2 0x568 SWAP2 SWAP1 PUSH2 0xD16 JUMP JUMPDEST SWAP1 SWAP2 SSTORE POP PUSH2 0x5A2 SWAP1 POP PUSH1 0x1 PUSH1 0x1 PUSH1 0xA0 SHL SUB PUSH32 0x0 AND CALLER DUP4 PUSH2 0x9C5 JUMP JUMPDEST PUSH1 0x40 MLOAD DUP2 DUP2 MSTORE CALLER SWAP1 PUSH32 0xFC30CDDEA38E2BF4D6EA7D3F9ED3B6AD7F176419F4963BD81318067A4AEE73FE SWAP1 PUSH1 0x20 ADD PUSH1 0x40 MLOAD DUP1 SWAP2 SUB SWAP1 LOG2 POP POP PUSH2 0x5EF PUSH1 0x1 PUSH0 DUP1 MLOAD PUSH1 0x20 PUSH2 0xD90 DUP4 CODECOPY DUP2 MLOAD SWAP2 MSTORE SSTORE JUMP JUMPDEST JUMP JUMPDEST PUSH2 0x612 PUSH1 0x40 MLOAD DUP1 PUSH1 0x60 ADD PUSH1 0x40 MSTORE DUP1 PUSH0 DUP2 MSTORE PUSH1 0x20 ADD PUSH0 DUP2 MSTORE PUSH1 0x20 ADD PUSH0 DUP2 MSTORE POP SWAP1 JUMP JUMPDEST POP PUSH1 0x1 PUSH1 0x1 PUSH1 0xA0 SHL SUB AND PUSH0 SWAP1 DUP2 MSTORE PUSH1 0x3 PUSH1 0x20 SWAP1 DUP2 MSTORE PUSH1 0x40 SWAP2 DUP3 SWAP1 KECCAK256 DUP3 MLOAD PUSH1 0x60 DUP2 ADD DUP5 MSTORE DUP2 SLOAD DUP2 MSTORE PUSH1 0x1 DUP3 ADD SLOAD SWAP3 DUP2 ADD SWAP3 SWAP1 SWAP3 MSTORE PUSH1 0x2 ADD SLOAD SWAP2 DUP2 ADD SWAP2 SWAP1 SWAP2 MSTORE SWAP1 JUMP JUMPDEST PUSH2 0x65B PUSH2 0x9FF JUMP JUMPDEST PUSH2 0x5EF PUSH0 PUSH2 0xA2B JUMP JUMPDEST PUSH2 0x66C PUSH2 0x9FF JUMP JUMPDEST PUSH0 DUP2 GT PUSH2 0x68B JUMPI PUSH1 0x40 MLOAD PUSH3 0x461BCD PUSH1 0xE5 SHL DUP2 MSTORE PUSH1 0x4 ADD PUSH2 0x2E8 SWAP1 PUSH2 0xCCD JUMP JUMPDEST PUSH2 0x6C0 PUSH1 0x1 PUSH1 0x1 PUSH1 0xA0 SHL SUB PUSH32 0x0 AND CALLER ADDRESS DUP5 PUSH2 0xA7A JUMP JUMPDEST DUP1 PUSH1 0x2 PUSH0 DUP3 DUP3 SLOAD PUSH2 0x6D1 SWAP2 SWAP1 PUSH2 0xD2F JUMP JUMPDEST SWAP1 SWAP2 SSTORE POP POP PUSH1 0x40 MLOAD DUP2 DUP2 MSTORE PUSH32 0xE42DDE25409A3E8C7C119C1C722610D9E9BD96E73E3CEAD774863C9FFDD870D6 SWAP1 PUSH1 0x20 ADD PUSH1 0x40 MLOAD DUP1 SWAP2 SUB SWAP1 LOG1 POP JUMP JUMPDEST PUSH0 PUSH2 0x715 PUSH2 0xAB6 JUMP JUMPDEST SWAP1 POP SWAP1 JUMP JUMPDEST PUSH2 0x722 PUSH2 0x900 JUMP JUMPDEST PUSH0 DUP2 GT PUSH2 0x741 JUMPI PUSH1 0x40 MLOAD PUSH3 0x461BCD PUSH1 0xE5 SHL DUP2 MSTORE PUSH1 0x4 ADD PUSH2 0x2E8 SWAP1 PUSH2 0xCCD JUMP JUMPDEST PUSH2 0x74A CALLER PUSH2 0x91B JUMP JUMPDEST CALLER PUSH0 SWAP1 DUP2 MSTORE PUSH1 0x3 PUSH1 0x20 MSTORE PUSH1 0x40 DUP2 KECCAK256 DUP1 SLOAD DUP4 SWAP3 SWAP1 PUSH2 0x768 SWAP1 DUP5 SWAP1 PUSH2 0xD2F JUMP JUMPDEST SWAP3 POP POP DUP2 SWAP1 SSTORE POP DUP1 PUSH1 0x1 PUSH0 DUP3 DUP3 SLOAD PUSH2 0x780 SWAP2 SWAP1 PUSH2 0xD2F JUMP JUMPDEST SWAP1 SWAP2 SSTORE POP PUSH2 0x7BB SWAP1 POP PUSH1 0x1 PUSH1 0x1 PUSH1 0xA0 SHL SUB PUSH32 0x0 AND CALLER ADDRESS DUP5 PUSH2 0xA7A JUMP JUMPDEST PUSH1 0x40 MLOAD DUP2 DUP2 MSTORE CALLER SWAP1 PUSH32 0x9E71BC8EEA02A63969F509818F2DAFB9254532904319F9DBDA79B67BD34A5F3D SWAP1 PUSH1 0x20 ADD PUSH1 0x40 MLOAD DUP1 SWAP2 SUB SWAP1 LOG2 PUSH2 0x491 PUSH1 0x1 PUSH0 DUP1 MLOAD PUSH1 0x20 PUSH2 0xD90 DUP4 CODECOPY DUP2 MLOAD SWAP2 MSTORE SSTORE JUMP JUMPDEST PUSH2 0x80E PUSH2 0x9FF JUMP JUMPDEST PUSH1 0x1 PUSH1 0x1 PUSH1 0xA0 SHL SUB DUP2 AND PUSH2 0x837 JUMPI PUSH1 0x40 MLOAD PUSH4 0x1E4FBDF7 PUSH1 0xE0 SHL DUP2 MSTORE PUSH0 PUSH1 0x4 DUP3 ADD MSTORE PUSH1 0x24 ADD PUSH2 0x2E8 JUMP JUMPDEST PUSH2 0x491 DUP2 PUSH2 0xA2B JUMP JUMPDEST PUSH1 0x1 PUSH1 0x1 PUSH1 0xA0 SHL SUB DUP2 AND PUSH0 SWAP1 DUP2 MSTORE PUSH1 0x3 PUSH1 0x20 SWAP1 DUP2 MSTORE PUSH1 0x40 DUP1 DUP4 KECCAK256 DUP2 MLOAD PUSH1 0x60 DUP2 ADD DUP4 MSTORE DUP2 SLOAD DUP2 MSTORE PUSH1 0x1 DUP3 ADD SLOAD SWAP4 DUP2 ADD SWAP4 SWAP1 SWAP4 MSTORE PUSH1 0x2 ADD SLOAD SWAP1 DUP3 ADD DUP2 SWAP1 MSTORE ISZERO DUP1 PUSH2 0x887 JUMPI POP DUP1 MLOAD ISZERO JUMPDEST ISZERO PUSH2 0x896 JUMPI PUSH1 0x20 ADD MLOAD SWAP3 SWAP2 POP POP JUMP JUMPDEST PUSH0 DUP2 PUSH1 0x40 ADD MLOAD TIMESTAMP PUSH2 0x8A7 SWAP2 SWAP1 PUSH2 0xD16 JUMP JUMPDEST SWAP1 POP PUSH0 PUSH2 0x2710 PUSH4 0x1E13380 PUSH2 0x8BA PUSH2 0xAB6 JUMP JUMPDEST DUP6 MLOAD PUSH2 0x8C7 SWAP1 DUP7 SWAP1 PUSH2 0xD42 JUMP JUMPDEST PUSH2 0x8D1 SWAP2 SWAP1 PUSH2 0xD42 JUMP JUMPDEST PUSH2 0x8DB SWAP2 SWAP1 PUSH2 0xD59 JUMP JUMPDEST PUSH2 0x8E5 SWAP2 SWAP1 PUSH2 0xD59 JUMP JUMPDEST SWAP1 POP DUP1 DUP4 PUSH1 0x20 ADD MLOAD PUSH2 0x8F7 SWAP2 SWAP1 PUSH2 0xD2F JUMP JUMPDEST SWAP6 SWAP5 POP POP POP POP POP JUMP JUMPDEST PUSH2 0x908 PUSH2 0xB8B JUMP JUMPDEST PUSH1 0x2 PUSH0 DUP1 MLOAD PUSH1 0x20 PUSH2 0xD90 DUP4 CODECOPY DUP2 MLOAD SWAP2 MSTORE SSTORE JUMP JUMPDEST PUSH1 0x1 PUSH1 0x1 PUSH1 0xA0 SHL SUB DUP2 AND PUSH0 SWAP1 DUP2 MSTORE PUSH1 0x3 PUSH1 0x20 MSTORE PUSH1 0x40 DUP2 KECCAK256 PUSH1 0x2 DUP2 ADD SLOAD SWAP1 SWAP2 SUB PUSH2 0x948 JUMPI TIMESTAMP PUSH1 0x2 SWAP1 SWAP2 ADD SSTORE POP JUMP JUMPDEST DUP1 SLOAD ISZERO PUSH2 0x9BB JUMPI PUSH0 DUP2 PUSH1 0x2 ADD SLOAD TIMESTAMP PUSH2 0x960 SWAP2 SWAP1 PUSH2 0xD16 JUMP JUMPDEST SWAP1 POP PUSH0 PUSH2 0x2710 PUSH4 0x1E13380 PUSH2 0x973 PUSH2 0xAB6 JUMP JUMPDEST DUP6 SLOAD PUSH2 0x980 SWAP1 DUP7 SWAP1 PUSH2 0xD42 JUMP JUMPDEST PUSH2 0x98A SWAP2 SWAP1 PUSH2 0xD42 JUMP JUMPDEST PUSH2 0x994 SWAP2 SWAP1 PUSH2 0xD59 JUMP JUMPDEST PUSH2 0x99E SWAP2 SWAP1 PUSH2 0xD59 JUMP JUMPDEST SWAP1 POP DUP1 DUP4 PUSH1 0x1 ADD PUSH0 DUP3 DUP3 SLOAD PUSH2 0x9B3 SWAP2 SWAP1 PUSH2 0xD2F JUMP JUMPDEST SWAP1 SWAP2 SSTORE POP POP POP POP JUMPDEST TIMESTAMP PUSH1 0x2 SWAP1 SWAP2 ADD SSTORE POP JUMP JUMPDEST PUSH2 0x9D2 DUP4 DUP4 DUP4 PUSH1 0x1 PUSH2 0xBBA JUMP JUMPDEST PUSH2 0x9FA JUMPI PUSH1 0x40 MLOAD PUSH4 0x5274AFE7 PUSH1 0xE0 SHL DUP2 MSTORE PUSH1 0x1 PUSH1 0x1 PUSH1 0xA0 SHL SUB DUP5 AND PUSH1 0x4 DUP3 ADD MSTORE PUSH1 0x24 ADD PUSH2 0x2E8 JUMP JUMPDEST POP POP POP JUMP JUMPDEST PUSH0 SLOAD PUSH1 0x1 PUSH1 0x1 PUSH1 0xA0 SHL SUB AND CALLER EQ PUSH2 0x5EF JUMPI PUSH1 0x40 MLOAD PUSH4 0x118CDAA7 PUSH1 0xE0 SHL DUP2 MSTORE CALLER PUSH1 0x4 DUP3 ADD MSTORE PUSH1 0x24 ADD PUSH2 0x2E8 JUMP JUMPDEST PUSH0 DUP1 SLOAD PUSH1 0x1 PUSH1 0x1 PUSH1 0xA0 SHL SUB DUP4 DUP2 AND PUSH1 0x1 PUSH1 0x1 PUSH1 0xA0 SHL SUB NOT DUP4 AND DUP2 OR DUP5 SSTORE PUSH1 0x40 MLOAD SWAP2 SWAP1 SWAP3 AND SWAP3 DUP4 SWAP2 PUSH32 0x8BE0079C531659141344CD1FD0A4F28419497F9722A3DAAFE3B4186F6B6457E0 SWAP2 SWAP1 LOG3 POP POP JUMP JUMPDEST PUSH2 0xA88 DUP5 DUP5 DUP5 DUP5 PUSH1 0x1 PUSH2 0xC1C JUMP JUMPDEST PUSH2 0xAB0 JUMPI PUSH1 0x40 MLOAD PUSH4 0x5274AFE7 PUSH1 0xE0 SHL DUP2 MSTORE PUSH1 0x1 PUSH1 0x1 PUSH1 0xA0 SHL SUB DUP6 AND PUSH1 0x4 DUP3 ADD MSTORE PUSH1 0x24 ADD PUSH2 0x2E8 JUMP JUMPDEST POP POP POP POP JUMP JUMPDEST PUSH0 DUP1 PUSH2 0x3E8 SWAP1 POP PUSH32 0x0 PUSH1 0x1 PUSH1 0x1 PUSH1 0xA0 SHL SUB AND PUSH4 0x8E15F473 PUSH1 0x40 MLOAD DUP2 PUSH4 0xFFFFFFFF AND PUSH1 0xE0 SHL DUP2 MSTORE PUSH1 0x4 ADD PUSH1 0x20 PUSH1 0x40 MLOAD DUP1 DUP4 SUB DUP2 DUP7 GAS STATICCALL SWAP3 POP POP POP DUP1 ISZERO PUSH2 0xB37 JUMPI POP PUSH1 0x40 DUP1 MLOAD PUSH1 0x1F RETURNDATASIZE SWAP1 DUP2 ADD PUSH1 0x1F NOT AND DUP3 ADD SWAP1 SWAP3 MSTORE PUSH2 0xB34 SWAP2 DUP2 ADD SWAP1 PUSH2 0xD78 JUMP JUMPDEST PUSH1 0x1 JUMPDEST PUSH2 0xB40 JUMPI SWAP2 SWAP1 POP JUMP JUMPDEST PUSH5 0x45D964B800 DUP2 SLT PUSH2 0xB5E JUMPI PUSH2 0xB57 PUSH1 0xC8 DUP4 PUSH2 0xD2F JUMP JUMPDEST SWAP2 POP PUSH2 0xB85 JUMP JUMPDEST PUSH0 DUP2 SGT DUP1 ISZERO PUSH2 0xB72 JUMPI POP PUSH5 0x22ECB25C00 DUP2 SGT ISZERO JUMPDEST ISZERO PUSH2 0xB85 JUMPI PUSH2 0xB82 PUSH1 0xC8 DUP4 PUSH2 0xD16 JUMP JUMPDEST SWAP2 POP JUMPDEST POP SWAP2 SWAP1 POP JUMP JUMPDEST PUSH0 DUP1 MLOAD PUSH1 0x20 PUSH2 0xD90 DUP4 CODECOPY DUP2 MLOAD SWAP2 MSTORE SLOAD PUSH1 0x2 SUB PUSH2 0x5EF JUMPI PUSH1 0x40 MLOAD PUSH4 0x3EE5AEB5 PUSH1 0xE0 SHL DUP2 MSTORE PUSH1 0x4 ADD PUSH1 0x40 MLOAD DUP1 SWAP2 SUB SWAP1 REVERT JUMPDEST PUSH1 0x40 MLOAD PUSH4 0xA9059CBB PUSH1 0xE0 SHL PUSH0 DUP2 DUP2 MSTORE PUSH1 0x1 PUSH1 0x1 PUSH1 0xA0 SHL SUB DUP7 AND PUSH1 0x4 MSTORE PUSH1 0x24 DUP6 SWAP1 MSTORE SWAP2 PUSH1 0x20 DUP4 PUSH1 0x44 DUP2 DUP1 DUP12 GAS CALL SWAP3 POP PUSH1 0x1 PUSH0 MLOAD EQ DUP4 AND PUSH2 0xC10 JUMPI DUP4 DUP4 ISZERO AND ISZERO PUSH2 0xC04 JUMPI RETURNDATASIZE PUSH0 DUP3 RETURNDATACOPY RETURNDATASIZE DUP2 REVERT JUMPDEST PUSH0 DUP8 EXTCODESIZE GT RETURNDATASIZE ISZERO AND DUP4 AND SWAP3 POP JUMPDEST PUSH1 0x40 MSTORE POP SWAP5 SWAP4 POP POP POP POP JUMP JUMPDEST PUSH1 0x40 MLOAD PUSH4 0x23B872DD PUSH1 0xE0 SHL PUSH0 DUP2 DUP2 MSTORE PUSH1 0x1 PUSH1 0x1 PUSH1 0xA0 SHL SUB DUP8 DUP2 AND PUSH1 0x4 MSTORE DUP7 AND PUSH1 0x24 MSTORE PUSH1 0x44 DUP6 SWAP1 MSTORE SWAP2 PUSH1 0x20 DUP4 PUSH1 0x64 DUP2 DUP1 DUP13 GAS CALL SWAP3 POP PUSH1 0x1 PUSH0 MLOAD EQ DUP4 AND PUSH2 0xC78 JUMPI DUP4 DUP4 ISZERO AND ISZERO PUSH2 0xC6C JUMPI RETURNDATASIZE PUSH0 DUP3 RETURNDATACOPY RETURNDATASIZE DUP2 REVERT JUMPDEST PUSH0 DUP9 EXTCODESIZE GT RETURNDATASIZE ISZERO AND DUP4 AND SWAP3 POP JUMPDEST PUSH1 0x40 MSTORE POP PUSH0 PUSH1 0x60 MSTORE SWAP6 SWAP5 POP POP POP POP POP JUMP JUMPDEST PUSH0 PUSH1 0x20 DUP3 DUP5 SUB SLT ISZERO PUSH2 0xC99 JUMPI PUSH0 DUP1 REVERT JUMPDEST POP CALLDATALOAD SWAP2 SWAP1 POP JUMP JUMPDEST PUSH0 PUSH1 0x20 DUP3 DUP5 SUB SLT ISZERO PUSH2 0xCB0 JUMPI PUSH0 DUP1 REVERT JUMPDEST DUP2 CALLDATALOAD PUSH1 0x1 PUSH1 0x1 PUSH1 0xA0 SHL SUB DUP2 AND DUP2 EQ PUSH2 0xCC6 JUMPI PUSH0 DUP1 REVERT JUMPDEST SWAP4 SWAP3 POP POP POP JUMP JUMPDEST PUSH1 0x20 DUP1 DUP3 MSTORE DUP2 DUP2 ADD MSTORE PUSH32 0x416D6F756E74206D7573742062652067726561746572207468616E207A65726F PUSH1 0x40 DUP3 ADD MSTORE PUSH1 0x60 ADD SWAP1 JUMP JUMPDEST PUSH4 0x4E487B71 PUSH1 0xE0 SHL PUSH0 MSTORE PUSH1 0x11 PUSH1 0x4 MSTORE PUSH1 0x24 PUSH0 REVERT JUMPDEST DUP2 DUP2 SUB DUP2 DUP2 GT ISZERO PUSH2 0xD29 JUMPI PUSH2 0xD29 PUSH2 0xD02 JUMP JUMPDEST SWAP3 SWAP2 POP POP JUMP JUMPDEST DUP1 DUP3 ADD DUP1 DUP3 GT ISZERO PUSH2 0xD29 JUMPI PUSH2 0xD29 PUSH2 0xD02 JUMP JUMPDEST DUP1 DUP3 MUL DUP2 ISZERO DUP3 DUP3 DIV DUP5 EQ OR PUSH2 0xD29 JUMPI PUSH2 0xD29 PUSH2 0xD02 JUMP JUMPDEST PUSH0 DUP3 PUSH2 0xD73 JUMPI PUSH4 0x4E487B71 PUSH1 0xE0 SHL PUSH0 MSTORE PUSH1 0x12 PUSH1 0x4 MSTORE PUSH1 0x24 PUSH0 REVERT JUMPDEST POP DIV SWAP1 JUMP JUMPDEST PUSH0 PUSH1 0x20 DUP3 DUP5 SUB SLT ISZERO PUSH2 0xD88 JUMPI PUSH0 DUP1 REVERT JUMPDEST POP MLOAD SWAP2 SWAP1 POP JUMP INVALID SWAP12 PUSH24 0x9B17422D0DF92223018B32B4D1FA46E071723D6817E2486D STOP EXTCODESIZE 0xEC 0xC5 PUSH0 STOP LOG2 PUSH5 0x6970667358 0x22 SLT KECCAK256 DIV NUMBER 0x28 OR DUP13 0xA5 LOG4 0x22 CALLDATACOPY DUP12 CALLER 0xE2 0xB5 0xEB 0x27 0xA6 0xAC PUSH24 0xCF3E8B06840DB78D82741CCA9FF964736F6C634300081A00 CALLER "},"methodIdentifiers":{"BASE_APY_BPS()":"e174d209","BASIS_POINTS()":"e1f1c4a7","BONUS_APY_BPS()":"d7ab5657","DISCOUNT_APY_BPS()":"d006601a","YEAR_IN_SECONDS()":"7847ea53","claimRewards()":"372500ab","eduToken()":"8d878889","fundRewards(uint256)":"93707a19","getCurrentApyBps()":"9d1446d4","getPendingRewards(address)":"f6ed2017","getStakedBalance(address)":"3a02a42d","getUserInfo(address)":"6386c1c7","owner()":"8da5cb5b","priceConsumer()":"461a758c","renounceOwnership()":"715018a6","rewardReserve()":"cab64bcd","stake(uint256)":"a694fc3a","totalStaked()":"817b1cd2","transferOwnership(address)":"f2fde38b","unstake(uint256)":"2e17de78"}}}}}