{"contracts/MockV3Aggregator.sol":{"MockV3Aggregator":{"abi":[{"inputs":[{"internalType":"uint8","name":"decimals_","type":"uint8"},{"internalType":"int256","name":"initialAnswer","type":"int256"}],"stateMutability":"nonpayable","type":"constructor"},{"inputs":[],"name":"decimals","outputs":[{"internalType":"uint8","name":"","type":"uint8"}],"stateMutability":"view","type":"function"},{"inputs":[],"name":"latestRoundData","outputs":[{"internalType":"uint80","name":"","type":"uint80"},{"internalType":"int256","name":"","type":"int256"},{"internalType":"uint256","name":"","type":"uint256"},{"internalType":"uint256","name":"","type":"uint256"},{"internalType":"uint80","name":"","type":"uint80"}],"stateMutability":"view","type":"function"},{"inputs":[{"internalType":"int256","name":"newAnswer","type":"int256"}],"name":"updateAnswer","outputs":[],"stateMutability":"nonpayable","type":"function"}],"evm":{"bytecode":{"linkReferences":{},"object":"60a0604052348015600e575f80fd5b50604051610230380380610230833981016040819052602b91604f565b60ff9091166080525f55600180546001600160501b0319168117905542600255607e565b5f8060408385031215605f575f80fd5b825160ff81168114606e575f80fd5b6020939093015192949293505050565b60805161019b6100955f395f6048015261019b5ff3fe608060405234801561000f575f80fd5b506004361061003f575f3560e01c8063313ce56714610043578063a87a20ce14610081578063feaf968c14610096575b5f80fd5b61006a7f000000000000000000000000000000000000000000000000000000000000000081565b60405160ff90911681526020015b60405180910390f35b61009461008f36600461011d565b6100cf565b005b6001545f54600254604080516001600160501b03909416808552602085019390935283018190526060830152608082015260a001610078565b5f81815560018054909182916100ef9083906001600160501b0316610134565b92506101000a8154816001600160501b0302191690836001600160501b031602179055504260028190555050565b5f6020828403121561012d575f80fd5b5035919050565b6001600160501b03818116838216019081111561015f57634e487b7160e01b5f52601160045260245ffd5b9291505056fea26469706673582212203fcf681298b8c0d0552f6c650151c38e85f56fca5754caf94c41c7389ce8e38c64736f6c634300081a0033","opcodes":"PUSH1 0xA0 PUSH1 0x40 MSTORE CALLVALUE DUP1 ISZERO PUSH1 0xE JUMPI PUSH0 DUP1 REVERT JUMPDEST POP PUSH1 0x40 MLOAD PUSH2 0x230 CODESIZE SUB DUP1 PUSH2 0x230 DUP4 CODECOPY DUP2 ADD PUSH1 0x40 DUP2 SWAP1 MSTORE PUSH1 0x2B SWAP2 PUSH1 0x4F JUMP JUMPDEST PUSH1 0xFF SWAP1 SWAP2 AND PUSH1 0x80 MSTORE PUSH0 SSTORE PUSH1 0x1 DUP1 SLOAD PUSH1 0x1 PUSH1 0x1 PUSH1 0x50 SHL SUB NOT AND DUP2 OR SWAP1 SSTORE TIMESTAMP PUSH1 0x2 SSTORE PUSH1 0x7E JUMP JUMPDEST PUSH0 DUP1 PUSH1 0x40 DUP4 DUP6 SUB SLT ISZERO PUSH1 0x5F JUMPI PUSH0 DUP1 REVERT JUMPDEST DUP3 MLOAD PUSH1 0xFF DUP2 AND DUP2 EQ PUSH1 0x6E JUMPI PUSH0 DUP1 REVERT JUMPDEST PUSH1 0x20 SWAP4 SWAP1 SWAP4 ADD MLOAD SWAP3 SWAP5 SWAP3 SWAP4 POP POP POP JUMP JUMPDEST PUSH1 0x80 MLOAD PUSH2 0x19B PUSH2 0x95 PUSH0 CODECOPY PUSH0 PUSH1 0x48 ADD MSTORE PUSH2 0x19B PUSH0 RETURN INVALID PUSH1 0x80 PUSH1 0x40 MSTORE CALLVALUE DUP1 ISZERO PUSH2 0xF JUMPI PUSH0 DUP1 REVERT JUMPDEST POP PUSH1 0x4 CALLDATASIZE LT PUSH2 0x3F JUMPI PUSH0 CALLDATALOAD PUSH1 0xE0 SHR DUP1 PUSH4 0x313CE567 EQ PUSH2 0x43 JUMPI DUP1 PUSH4 0xA87A20CE EQ PUSH2 0x81 JUMPI DUP1 PUSH4 0xFEAF968C EQ PUSH2 0x96 JUMPI JUMPDEST PUSH0 DUP1 REVERT JUMPDEST PUSH2 0x6A PUSH32 0x0 DUP2 JUMP JUMPDEST PUSH1 0x40 MLOAD PUSH1 0xFF SWAP1 SWAP2 AND DUP2 MSTORE PUSH1 0x20 ADD JUMPDEST PUSH1 0x40 MLOAD DUP1 SWAP2 SUB SWAP1 RETURN JUMPDEST PUSH2 0x94 PUSH2 0x8F CALLDATASIZE PUSH1 0x4 PUSH2 0x11D JUMP JUMPDEST PUSH2 0xCF JUMP JUMPDEST STOP JUMPDEST PUSH1 0x1 SLOAD PUSH0 SLOAD PUSH1 0x2 SLOAD PUSH1 0x40 DUP1 MLOAD PUSH1 0x1 PUSH1 0x1 PUSH1 0x50 SHL SUB SWAP1 SWAP5 AND DUP1 DUP6 MSTORE PUSH1 0x20 DUP6 ADD SWAP4 SWAP1 SWAP4 MSTORE DUP4 ADD DUP2 SWAP1 MSTORE PUSH1 0x60 DUP4 ADD MSTORE PUSH1 0x80 DUP3 ADD MSTORE PUSH1 0xA0 ADD PUSH2 0x78 JUMP JUMPDEST PUSH0 DUP2 DUP2 SSTORE PUSH1 0x1 DUP1 SLOAD SWAP1 SWAP2 DUP3 SWAP2 PUSH2 0xEF SWAP1 DUP4 SWAP1 PUSH1 0x1 PUSH1 0x1 PUSH1 0x50 SHL SUB AND PUSH2 0x134 JUMP JUMPDEST SWAP3 POP PUSH2 0x100 EXP DUP2 SLOAD DUP2 PUSH1 0x1 PUSH1 0x1 PUSH1 0x50 SHL SUB MUL NOT AND SWAP1 DUP4 PUSH1 0x1 PUSH1 0x1 PUSH1 0x50 SHL SUB AND MUL OR SWAP1 SSTORE POP TIMESTAMP PUSH1 0x2 DUP2 SWAP1 SSTORE POP POP JUMP JUMPDEST PUSH0 PUSH1 0x20 DUP3 DUP5 SUB SLT ISZERO PUSH2 0x12D JUMPI PUSH0 DUP1 REVERT JUMPDEST POP CALLDATALOAD SWAP2 SWAP1 POP JUMP JUMPDEST PUSH1 0x1 PUSH1 0x1 PUSH1 0x50 SHL SUB DUP2 DUP2 AND DUP4 DUP3 AND ADD SWAP1 DUP2 GT ISZERO PUSH2 0x15F JUMPI PUSH4 0x4E487B71 PUSH1 0xE0 SHL PUSH0 MSTORE PUSH1 0x11 PUSH1 0x4 MSTORE PUSH1 0x24 PUSH0 REVERT JUMPDEST SWAP3 SWAP2 POP POP JUMP INVALID LOG2 PUSH5 0x6970667358 0x22 SLT KECCAK256 EXTCODEHASH 0xCF PUSH9 0x1298B8C0D0552F6C65 ADD MLOAD 0xC3 DUP15 DUP6 CREATE2 PUSH16 0xCA5754CAF94C41C7389CE8E38C64736F PUSH13 0x634300081A0033000000000000 "},"methodIdentifiers":{"decimals()":"313ce567","latestRoundData()":"feaf968c","updateAnswer(int256)":"a87a20ce"}}}}}