{
  "_format": "hh-sol-artifact-1",
  "contractName": "SimpleDAO",
  "sourceName": "contracts/SimpleDAO.sol",
  "abi": [
    {
      "inputs": [
        {
          "internalType": "address",
          "name": "tokenAddress",
          "type": "address"
        }
      ],
      "stateMutability": "nonpayable",
      "type": "constructor"
    },
    {
      "anonymous": false,
      "inputs": [
        {
          "indexed": true,
          "internalType": "uint256",
          "name": "proposalId",
          "type": "uint256"
        },
        {
          "indexed": true,
          "internalType": "address",
          "name": "proposer",
          "type": "address"
        },
        {
          "indexed": false,
          "internalType": "uint256",
          "name": "deadline",
          "type": "uint256"
        }
      ],
      "name": "ProposalCreated",
      "type": "event"
    },
    {
      "anonymous": false,
      "inputs": [
        {
          "indexed": true,
          "internalType": "uint256",
          "name": "proposalId",
          "type": "uint256"
        },
        {
          "indexed": false,
          "internalType": "bool",
          "name": "approved",
          "type": "bool"
        }
      ],
      "name": "ProposalExecuted",
      "type": "event"
    },
    {
      "anonymous": false,
      "inputs": [
        {
          "indexed": true,
          "internalType": "uint256",
          "name": "proposalId",
          "type": "uint256"
        },
        {
          "indexed": true,
          "internalType": "address",
          "name": "voter",
          "type": "address"
        },
        {
          "indexed": false,
          "internalType": "bool",
          "name": "support",
          "type": "bool"
        },
        {
          "indexed": false,
          "internalType": "uint256",
          "name": "votingPower",
          "type": "uint256"
        }
      ],
      "name": "Voted",
      "type": "event"
    },
    {
      "inputs": [
        {
          "internalType": "string",
          "name": "title",
          "type": "string"
        },
        {
          "internalType": "string",
          "name": "description",
          "type": "string"
        },
        {
          "internalType": "uint256",
          "name": "durationInSeconds",
          "type": "uint256"
        }
      ],
      "name": "createProposal",
      "outputs": [
        {
          "internalType": "uint256",
          "name": "",
          "type": "uint256"
        }
      ],
      "stateMutability": "nonpayable",
      "type": "function"
    },
    {
      "inputs": [],
      "name": "eduToken",
      "outputs": [
        {
          "internalType": "contract IERC20",
          "name": "",
          "type": "address"
        }
      ],
      "stateMutability": "view",
      "type": "function"
    },
    {
      "inputs": [
        {
          "internalType": "uint256",
          "name": "proposalId",
          "type": "uint256"
        }
      ],
      "name": "executeProposal",
      "outputs": [],
      "stateMutability": "nonpayable",
      "type": "function"
    },
    {
      "inputs": [
        {
          "internalType": "uint256",
          "name": "proposalId",
          "type": "uint256"
        }
      ],
      "name": "getProposal",
      "outputs": [
        {
          "components": [
            {
              "internalType": "uint256",
              "name": "id",
              "type": "uint256"
            },
            {
              "internalType": "string",
              "name": "title",
              "type": "string"
            },
            {
              "internalType": "string",
              "name": "description",
              "type": "string"
            },
            {
              "internalType": "uint256",
              "name": "yesVotes",
              "type": "uint256"
            },
            {
              "internalType": "uint256",
              "name": "noVotes",
              "type": "uint256"
            },
            {
              "internalType": "uint256",
              "name": "deadline",
              "type": "uint256"
            },
            {
              "internalType": "bool",
              "name": "executed",
              "type": "bool"
            },
            {
              "internalType": "address",
              "name": "proposer",
              "type": "address"
            }
          ],
          "internalType": "struct SimpleDAO.Proposal",
          "name": "",
          "type": "tuple"
        }
      ],
      "stateMutability": "view",
      "type": "function"
    },
    {
      "inputs": [
        {
          "internalType": "uint256",
          "name": "",
          "type": "uint256"
        },
        {
          "internalType": "address",
          "name": "",
          "type": "address"
        }
      ],
      "name": "hasVoted",
      "outputs": [
        {
          "internalType": "bool",
          "name": "",
          "type": "bool"
        }
      ],
      "stateMutability": "view",
      "type": "function"
    },
    {
      "inputs": [],
      "name": "proposalCount",
      "outputs": [
        {
          "internalType": "uint256",
          "name": "",
          "type": "uint256"
        }
      ],
      "stateMutability": "view",
      "type": "function"
    },
    {
      "inputs": [
        {
          "internalType": "uint256",
          "name": "",
          "type": "uint256"
        }
      ],
      "name": "proposals",
      "outputs": [
        {
          "internalType": "uint256",
          "name": "id",
          "type": "uint256"
        },
        {
          "internalType": "string",
          "name": "title",
          "type": "string"
        },
        {
          "internalType": "string",
          "name": "description",
          "type": "string"
        },
        {
          "internalType": "uint256",
          "name": "yesVotes",
          "type": "uint256"
        },
        {
          "internalType": "uint256",
          "name": "noVotes",
          "type": "uint256"
        },
        {
          "internalType": "uint256",
          "name": "deadline",
          "type": "uint256"
        },
        {
          "internalType": "bool",
          "name": "executed",
          "type": "bool"
        },
        {
          "internalType": "address",
          "name": "proposer",
          "type": "address"
        }
      ],
      "stateMutability": "view",
      "type": "function"
    },
    {
      "inputs": [
        {
          "internalType": "uint256",
          "name": "proposalId",
          "type": "uint256"
        },
        {
          "internalType": "bool",
          "name": "support",
          "type": "bool"
        }
      ],
      "name": "vote",
      "outputs": [],
      "stateMutability": "nonpayable",
      "type": "function"
    }
  ],
  "bytecode": "0x60a0604052348015600e575f80fd5b5060405161109a38038061109a833981016040819052602b916084565b6001600160a01b03811660745760405162461bcd60e51b815260206004820152600d60248201526c24b73b30b634b2103a37b5b2b760991b604482015260640160405180910390fd5b6001600160a01b031660805260af565b5f602082840312156093575f80fd5b81516001600160a01b038116811460a8575f80fd5b9392505050565b608051610fc56100d55f395f8181610131015281816103ba01526109e10152610fc55ff3fe608060405234801561000f575f80fd5b5060043610610085575f3560e01c80638d878889116100585780638d8788891461012c578063c7f758a81461016b578063c9d27afe1461018b578063da35c6641461019e575f80fd5b8063013cf08b146100895780630ce0ebf4146100b95780630d61b519146100da57806343859632146100ef575b5f80fd5b61009c610097366004610b3a565b6101a6565b6040516100b0989796959493929190610b7f565b60405180910390f35b6100cc6100c7366004610c81565b6102ff565b6040519081526020016100b0565b6100ed6100e8366004610b3a565b6105c3565b005b61011c6100fd366004610cef565b600260209081525f928352604080842090915290825290205460ff1681565b60405190151581526020016100b0565b6101537f000000000000000000000000000000000000000000000000000000000000000081565b6040516001600160a01b0390911681526020016100b0565b61017e610179366004610b3a565b6106ed565b6040516100b09190610d28565b6100ed610199366004610dbc565b6108e7565b6100cc5f5481565b600160208190525f9182526040909120805491810180546101c690610de3565b80601f01602080910402602001604051908101604052809291908181526020018280546101f290610de3565b801561023d5780601f106102145761010080835404028352916020019161023d565b820191905f5260205f20905b81548152906001019060200180831161022057829003601f168201915b50505050509080600201805461025290610de3565b80601f016020809104026020016040519081016040528092919081815260200182805461027e90610de3565b80156102c95780601f106102a0576101008083540402835291602001916102c9565b820191905f5260205f20905b8154815290600101906020018083116102ac57829003601f168201915b505050506003830154600484015460058501546006909501549394919390925060ff81169061010090046001600160a01b031688565b5f808451116103495760405162461bcd60e51b8152602060048201526011602482015270151a5d1b19481a5cc81c995c5d5a5c9959607a1b60448201526064015b60405180910390fd5b5f82116103a35760405162461bcd60e51b815260206004820152602260248201527f4475726174696f6e206d7573742062652067726561746572207468616e207a65604482015261726f60f01b6064820152608401610340565b6040516370a0823160e01b81523360048201525f907f00000000000000000000000000000000000000000000000000000000000000006001600160a01b0316906370a0823190602401602060405180830381865afa158015610407573d5f803e3d5ffd5b505050506040513d601f19601f8201168201806040525081019061042b9190610e1b565b116104785760405162461bcd60e51b815260206004820152601e60248201527f4f6e6c7920746f6b656e20686f6c646572732063616e2070726f706f736500006044820152606401610340565b60015f808282546104899190610e32565b909155505f905061049a8342610e32565b60408051610100810182525f805480835260208084018b81528486018b9052606085018490526080850184905260a0850187905260c085018490523360e086015291835260019081905293909120825181559051939450909290918201906105029082610e9d565b50604082015160028201906105179082610e9d565b50606082015160038201556080820151600482015560a0820151600582015560c08201516006909101805460e0909301516001600160a01b031661010002610100600160a81b0319921515929092166001600160a81b0319909316929092171790555f546040513391907f3417b456fad6209c73445d5efd446d686e75e4560f0f50c13b5a5cde976447b4906105b09085815260200190565b60405180910390a350505f549392505050565b5f81815260016020526040812080549091036105f15760405162461bcd60e51b815260040161034090610f58565b80600501544210156106455760405162461bcd60e51b815260206004820152601a60248201527f566f74696e6720706572696f64207374696c6c206163746976650000000000006044820152606401610340565b600681015460ff161561069a5760405162461bcd60e51b815260206004820152601960248201527f50726f706f73616c20616c7265616479206578656375746564000000000000006044820152606401610340565b60068101805460ff19166001179055600481015460038201546040519110815282907f948f4a9cd986f1118c3fbd459f7a22b23c0693e1ca3ef06a6a8be5aa7d39cc039060200160405180910390a25050565b61073a6040518061010001604052805f815260200160608152602001606081526020015f81526020015f81526020015f81526020015f151581526020015f6001600160a01b031681525090565b5f8281526001602081815260408084208151610100810190925280548252928301805491939284019161076c90610de3565b80601f016020809104026020016040519081016040528092919081815260200182805461079890610de3565b80156107e35780601f106107ba576101008083540402835291602001916107e3565b820191905f5260205f20905b8154815290600101906020018083116107c657829003601f168201915b505050505081526020016002820180546107fc90610de3565b80601f016020809104026020016040519081016040528092919081815260200182805461082890610de3565b80156108735780601f1061084a57610100808354040283529160200191610873565b820191905f5260205f20905b81548152906001019060200180831161085657829003601f168201915b505050918352505060038201546020820152600482015460408201526005820154606082015260069091015460ff81161515608083015261010090046001600160a01b031660a09091015280519091505f036108e15760405162461bcd60e51b815260040161034090610f58565b92915050565b5f82815260016020526040812080549091036109155760405162461bcd60e51b815260040161034090610f58565b806005015442106109685760405162461bcd60e51b815260206004820152601760248201527f566f74696e6720706572696f642068617320656e6465640000000000000000006044820152606401610340565b5f83815260026020908152604080832033845290915290205460ff16156109ca5760405162461bcd60e51b8152602060048201526016602482015275155cd95c881a185cc8185b1c9958591e481d9bdd195960521b6044820152606401610340565b6040516370a0823160e01b81523360048201525f907f00000000000000000000000000000000000000000000000000000000000000006001600160a01b0316906370a0823190602401602060405180830381865afa158015610a2e573d5f803e3d5ffd5b505050506040513d601f19601f82011682018060405250810190610a529190610e1b565b90505f8111610a955760405162461bcd60e51b815260206004820152600f60248201526e2737903b37ba34b733903837bbb2b960891b6044820152606401610340565b5f8481526002602090815260408083203384529091529020805460ff191660011790558215610adc5780826003015f828254610ad19190610e32565b90915550610af59050565b80826004015f828254610aef9190610e32565b90915550505b60408051841515815260208101839052339186917f7c2de587c00d75474a0c6c6fa96fd3b45dc974cd4e8a75f712bb84c950dce1b5910160405180910390a350505050565b5f60208284031215610b4a575f80fd5b5035919050565b5f81518084528060208401602086015e5f602082860101526020601f19601f83011685010191505092915050565b88815261010060208201525f610b9961010083018a610b51565b8281036040840152610bab818a610b51565b60608401989098525050608081019490945260a0840192909252151560c08301526001600160a01b031660e0909101529392505050565b634e487b7160e01b5f52604160045260245ffd5b5f82601f830112610c05575f80fd5b813567ffffffffffffffff811115610c1f57610c1f610be2565b604051601f8201601f19908116603f0116810167ffffffffffffffff81118282101715610c4e57610c4e610be2565b604052818152838201602001851015610c65575f80fd5b816020850160208301375f918101602001919091529392505050565b5f805f60608486031215610c93575f80fd5b833567ffffffffffffffff811115610ca9575f80fd5b610cb586828701610bf6565b935050602084013567ffffffffffffffff811115610cd1575f80fd5b610cdd86828701610bf6565b93969395505050506040919091013590565b5f8060408385031215610d00575f80fd5b8235915060208301356001600160a01b0381168114610d1d575f80fd5b809150509250929050565b60208152815160208201525f60208301516101006040840152610d4f610120840182610b51565b90506040840151601f19848303016060850152610d6c8282610b51565b91505060608401516080840152608084015160a084015260a084015160c084015260c0840151151560e084015260e0840151610db46101008501826001600160a01b03169052565b509392505050565b5f8060408385031215610dcd575f80fd5b8235915060208301358015158114610d1d575f80fd5b600181811c90821680610df757607f821691505b602082108103610e1557634e487b7160e01b5f52602260045260245ffd5b50919050565b5f60208284031215610e2b575f80fd5b5051919050565b808201808211156108e157634e487b7160e01b5f52601160045260245ffd5b601f821115610e9857805f5260205f20601f840160051c81016020851015610e765750805b601f840160051c820191505b81811015610e95575f8155600101610e82565b50505b505050565b815167ffffffffffffffff811115610eb757610eb7610be2565b610ecb81610ec58454610de3565b84610e51565b6020601f821160018114610efd575f8315610ee65750848201515b5f19600385901b1c1916600184901b178455610e95565b5f84815260208120601f198516915b82811015610f2c5787850151825560209485019460019092019101610f0c565b5084821015610f4957868401515f19600387901b60f8161c191681555b50505050600190811b01905550565b60208082526017908201527f50726f706f73616c20646f6573206e6f7420657869737400000000000000000060408201526060019056fea264697066735822122049e541a8f5849a9a08d2e0f85d9c15c7f6ae470a9027d4bf8b8d7efdae96caa764736f6c634300081a0033",
  "linkReferences": {},
  "deployedLinkReferences": {}
}