{
  "_format": "hh-sol-artifact-1",
  "contractName": "MockV3Aggregator",
  "sourceName": "contracts/MockV3Aggregator.sol",
  "abi": [
    {
      "inputs": [
        {
          "internalType": "uint8",
          "name": "decimals_",
          "type": "uint8"
        },
        {
          "internalType": "int256",
          "name": "initialAnswer",
          "type": "int256"
        }
      ],
      "stateMutability": "nonpayable",
      "type": "constructor"
    },
    {
      "inputs": [],
      "name": "decimals",
      "outputs": [
        {
          "internalType": "uint8",
          "name": "",
          "type": "uint8"
        }
      ],
      "stateMutability": "view",
      "type": "function"
    },
    {
      "inputs": [],
      "name": "latestRoundData",
      "outputs": [
        {
          "internalType": "uint80",
          "name": "",
          "type": "uint80"
        },
        {
          "internalType": "int256",
          "name": "",
          "type": "int256"
        },
        {
          "internalType": "uint256",
          "name": "",
          "type": "uint256"
        },
        {
          "internalType": "uint256",
          "name": "",
          "type": "uint256"
        },
        {
          "internalType": "uint80",
          "name": "",
          "type": "uint80"
        }
      ],
      "stateMutability": "view",
      "type": "function"
    },
    {
      "inputs": [
        {
          "internalType": "int256",
          "name": "newAnswer",
          "type": "int256"
        }
      ],
      "name": "updateAnswer",
      "outputs": [],
      "stateMutability": "nonpayable",
      "type": "function"
    }
  ],
  "bytecode": "0x60a0604052348015600e575f80fd5b50604051610230380380610230833981016040819052602b91604f565b60ff9091166080525f55600180546001600160501b0319168117905542600255607e565b5f8060408385031215605f575f80fd5b825160ff81168114606e575f80fd5b6020939093015192949293505050565b60805161019b6100955f395f6048015261019b5ff3fe608060405234801561000f575f80fd5b506004361061003f575f3560e01c8063313ce56714610043578063a87a20ce14610081578063feaf968c14610096575b5f80fd5b61006a7f000000000000000000000000000000000000000000000000000000000000000081565b60405160ff90911681526020015b60405180910390f35b61009461008f36600461011d565b6100cf565b005b6001545f54600254604080516001600160501b03909416808552602085019390935283018190526060830152608082015260a001610078565b5f81815560018054909182916100ef9083906001600160501b0316610134565b92506101000a8154816001600160501b0302191690836001600160501b031602179055504260028190555050565b5f6020828403121561012d575f80fd5b5035919050565b6001600160501b03818116838216019081111561015f57634e487b7160e01b5f52601160045260245ffd5b9291505056fea26469706673582212203fcf681298b8c0d0552f6c650151c38e85f56fca5754caf94c41c7389ce8e38c64736f6c634300081a0033",
  "linkReferences": {},
  "deployedLinkReferences": {}
}