{
  "_format": "hh-sol-artifact-1",
  "contractName": "EduBadgeNFT",
  "sourceName": "contracts/EduBadgeNFT.sol",
  "abi": [
    {
      "inputs": [],
      "stateMutability": "nonpayable",
      "type": "constructor"
    },
    {
      "inputs": [
        {
          "internalType": "address",
          "name": "sender",
          "type": "address"
        },
        {
          "internalType": "uint256",
          "name": "tokenId",
          "type": "uint256"
        },
        {
          "internalType": "address",
          "name": "owner",
          "type": "address"
        }
      ],
      "name": "ERC721IncorrectOwner",
      "type": "error"
    },
    {
      "inputs": [
        {
          "internalType": "address",
          "name": "operator",
          "type": "address"
        },
        {
          "internalType": "uint256",
          "name": "tokenId",
          "type": "uint256"
        }
      ],
      "name": "ERC721InsufficientApproval",
      "type": "error"
    },
    {
      "inputs": [
        {
          "internalType": "address",
          "name": "approver",
          "type": "address"
        }
      ],
      "name": "ERC721InvalidApprover",
      "type": "error"
    },
    {
      "inputs": [
        {
          "internalType": "address",
          "name": "operator",
          "type": "address"
        }
      ],
      "name": "ERC721InvalidOperator",
      "type": "error"
    },
    {
      "inputs": [
        {
          "internalType": "address",
          "name": "owner",
          "type": "address"
        }
      ],
      "name": "ERC721InvalidOwner",
      "type": "error"
    },
    {
      "inputs": [
        {
          "internalType": "address",
          "name": "receiver",
          "type": "address"
        }
      ],
      "name": "ERC721InvalidReceiver",
      "type": "error"
    },
    {
      "inputs": [
        {
          "internalType": "address",
          "name": "sender",
          "type": "address"
        }
      ],
      "name": "ERC721InvalidSender",
      "type": "error"
    },
    {
      "inputs": [
        {
          "internalType": "uint256",
          "name": "tokenId",
          "type": "uint256"
        }
      ],
      "name": "ERC721NonexistentToken",
      "type": "error"
    },
    {
      "inputs": [
        {
          "internalType": "address",
          "name": "owner",
          "type": "address"
        }
      ],
      "name": "OwnableInvalidOwner",
      "type": "error"
    },
    {
      "inputs": [
        {
          "internalType": "address",
          "name": "account",
          "type": "address"
        }
      ],
      "name": "OwnableUnauthorizedAccount",
      "type": "error"
    },
    {
      "anonymous": false,
      "inputs": [
        {
          "indexed": true,
          "internalType": "address",
          "name": "owner",
          "type": "address"
        },
        {
          "indexed": true,
          "internalType": "address",
          "name": "approved",
          "type": "address"
        },
        {
          "indexed": true,
          "internalType": "uint256",
          "name": "tokenId",
          "type": "uint256"
        }
      ],
      "name": "Approval",
      "type": "event"
    },
    {
      "anonymous": false,
      "inputs": [
        {
          "indexed": true,
          "internalType": "address",
          "name": "owner",
          "type": "address"
        },
        {
          "indexed": true,
          "internalType": "address",
          "name": "operator",
          "type": "address"
        },
        {
          "indexed": false,
          "internalType": "bool",
          "name": "approved",
          "type": "bool"
        }
      ],
      "name": "ApprovalForAll",
      "type": "event"
    },
    {
      "anonymous": false,
      "inputs": [
        {
          "indexed": false,
          "internalType": "uint256",
          "name": "_fromTokenId",
          "type": "uint256"
        },
        {
          "indexed": false,
          "internalType": "uint256",
          "name": "_toTokenId",
          "type": "uint256"
        }
      ],
      "name": "BatchMetadataUpdate",
      "type": "event"
    },
    {
      "anonymous": false,
      "inputs": [
        {
          "indexed": false,
          "internalType": "uint256",
          "name": "_tokenId",
          "type": "uint256"
        }
      ],
      "name": "MetadataUpdate",
      "type": "event"
    },
    {
      "anonymous": false,
      "inputs": [
        {
          "indexed": true,
          "internalType": "address",
          "name": "previousOwner",
          "type": "address"
        },
        {
          "indexed": true,
          "internalType": "address",
          "name": "newOwner",
          "type": "address"
        }
      ],
      "name": "OwnershipTransferred",
      "type": "event"
    },
    {
      "anonymous": false,
      "inputs": [
        {
          "indexed": true,
          "internalType": "address",
          "name": "from",
          "type": "address"
        },
        {
          "indexed": true,
          "internalType": "address",
          "name": "to",
          "type": "address"
        },
        {
          "indexed": true,
          "internalType": "uint256",
          "name": "tokenId",
          "type": "uint256"
        }
      ],
      "name": "Transfer",
      "type": "event"
    },
    {
      "inputs": [
        {
          "internalType": "address",
          "name": "to",
          "type": "address"
        },
        {
          "internalType": "uint256",
          "name": "tokenId",
          "type": "uint256"
        }
      ],
      "name": "approve",
      "outputs": [],
      "stateMutability": "nonpayable",
      "type": "function"
    },
    {
      "inputs": [
        {
          "internalType": "address",
          "name": "owner",
          "type": "address"
        }
      ],
      "name": "balanceOf",
      "outputs": [
        {
          "internalType": "uint256",
          "name": "",
          "type": "uint256"
        }
      ],
      "stateMutability": "view",
      "type": "function"
    },
    {
      "inputs": [
        {
          "internalType": "uint256",
          "name": "tokenId",
          "type": "uint256"
        }
      ],
      "name": "getApproved",
      "outputs": [
        {
          "internalType": "address",
          "name": "",
          "type": "address"
        }
      ],
      "stateMutability": "view",
      "type": "function"
    },
    {
      "inputs": [
        {
          "internalType": "address",
          "name": "owner",
          "type": "address"
        },
        {
          "internalType": "address",
          "name": "operator",
          "type": "address"
        }
      ],
      "name": "isApprovedForAll",
      "outputs": [
        {
          "internalType": "bool",
          "name": "",
          "type": "bool"
        }
      ],
      "stateMutability": "view",
      "type": "function"
    },
    {
      "inputs": [
        {
          "internalType": "address",
          "name": "to",
          "type": "address"
        },
        {
          "internalType": "string",
          "name": "tokenUri",
          "type": "string"
        }
      ],
      "name": "mintBadge",
      "outputs": [
        {
          "internalType": "uint256",
          "name": "",
          "type": "uint256"
        }
      ],
      "stateMutability": "nonpayable",
      "type": "function"
    },
    {
      "inputs": [],
      "name": "name",
      "outputs": [
        {
          "internalType": "string",
          "name": "",
          "type": "string"
        }
      ],
      "stateMutability": "view",
      "type": "function"
    },
    {
      "inputs": [],
      "name": "owner",
      "outputs": [
        {
          "internalType": "address",
          "name": "",
          "type": "address"
        }
      ],
      "stateMutability": "view",
      "type": "function"
    },
    {
      "inputs": [
        {
          "internalType": "uint256",
          "name": "tokenId",
          "type": "uint256"
        }
      ],
      "name": "ownerOf",
      "outputs": [
        {
          "internalType": "address",
          "name": "",
          "type": "address"
        }
      ],
      "stateMutability": "view",
      "type": "function"
    },
    {
      "inputs": [],
      "name": "renounceOwnership",
      "outputs": [],
      "stateMutability": "nonpayable",
      "type": "function"
    },
    {
      "inputs": [
        {
          "internalType": "address",
          "name": "from",
          "type": "address"
        },
        {
          "internalType": "address",
          "name": "to",
          "type": "address"
        },
        {
          "internalType": "uint256",
          "name": "tokenId",
          "type": "uint256"
        }
      ],
      "name": "safeTransferFrom",
      "outputs": [],
      "stateMutability": "nonpayable",
      "type": "function"
    },
    {
      "inputs": [
        {
          "internalType": "address",
          "name": "from",
          "type": "address"
        },
        {
          "internalType": "address",
          "name": "to",
          "type": "address"
        },
        {
          "internalType": "uint256",
          "name": "tokenId",
          "type": "uint256"
        },
        {
          "internalType": "bytes",
          "name": "data",
          "type": "bytes"
        }
      ],
      "name": "safeTransferFrom",
      "outputs": [],
      "stateMutability": "nonpayable",
      "type": "function"
    },
    {
      "inputs": [
        {
          "internalType": "address",
          "name": "operator",
          "type": "address"
        },
        {
          "internalType": "bool",
          "name": "approved",
          "type": "bool"
        }
      ],
      "name": "setApprovalForAll",
      "outputs": [],
      "stateMutability": "nonpayable",
      "type": "function"
    },
    {
      "inputs": [
        {
          "internalType": "bytes4",
          "name": "interfaceId",
          "type": "bytes4"
        }
      ],
      "name": "supportsInterface",
      "outputs": [
        {
          "internalType": "bool",
          "name": "",
          "type": "bool"
        }
      ],
      "stateMutability": "view",
      "type": "function"
    },
    {
      "inputs": [],
      "name": "symbol",
      "outputs": [
        {
          "internalType": "string",
          "name": "",
          "type": "string"
        }
      ],
      "stateMutability": "view",
      "type": "function"
    },
    {
      "inputs": [
        {
          "internalType": "uint256",
          "name": "tokenId",
          "type": "uint256"
        }
      ],
      "name": "tokenURI",
      "outputs": [
        {
          "internalType": "string",
          "name": "",
          "type": "string"
        }
      ],
      "stateMutability": "view",
      "type": "function"
    },
    {
      "inputs": [
        {
          "internalType": "address",
          "name": "from",
          "type": "address"
        },
        {
          "internalType": "address",
          "name": "to",
          "type": "address"
        },
        {
          "internalType": "uint256",
          "name": "tokenId",
          "type": "uint256"
        }
      ],
      "name": "transferFrom",
      "outputs": [],
      "stateMutability": "nonpayable",
      "type": "function"
    },
    {
      "inputs": [
        {
          "internalType": "address",
          "name": "newOwner",
          "type": "address"
        }
      ],
      "name": "transferOwnership",
      "outputs": [],
      "stateMutability": "nonpayable",
      "type": "function"
    }
  ],
  "bytecode": "0x608060405234801561000f575f80fd5b503360405180604001604052806008815260200167456475426164676560c01b8152506040518060400160405280600381526020016222a22160e91b815250815f908161005c9190610191565b5060016100698282610191565b5050506001600160a01b03811661009957604051631e4fbdf760e01b81525f600482015260240160405180910390fd5b6100a2816100a8565b5061024b565b600780546001600160a01b038381166001600160a01b0319831681179093556040519116919082907f8be0079c531659141344cd1fd0a4f28419497f9722a3daafe3b4186f6b6457e0905f90a35050565b634e487b7160e01b5f52604160045260245ffd5b600181811c9082168061012157607f821691505b60208210810361013f57634e487b7160e01b5f52602260045260245ffd5b50919050565b601f82111561018c57805f5260205f20601f840160051c8101602085101561016a5750805b601f840160051c820191505b81811015610189575f8155600101610176565b50505b505050565b81516001600160401b038111156101aa576101aa6100f9565b6101be816101b8845461010d565b84610145565b6020601f8211600181146101f0575f83156101d95750848201515b5f19600385901b1c1916600184901b178455610189565b5f84815260208120601f198516915b8281101561021f57878501518255602094850194600190920191016101ff565b508482101561023c57868401515f19600387901b60f8161c191681555b50505050600190811b01905550565b6113d4806102585f395ff3fe608060405234801561000f575f80fd5b5060043610610106575f3560e01c806370a082311161009e578063a22cb4651161006e578063a22cb46514610215578063b88d4fde14610228578063c87b56dd1461023b578063e985e9c51461024e578063f2fde38b14610261575f80fd5b806370a08231146101e1578063715018a6146101f45780638da5cb5b146101fc57806395d89b411461020d575f80fd5b806323b872dd116100d957806323b872dd1461018757806342842e0e1461019a5780636352211e146101ad5780636b2bafc8146101c0575f80fd5b806301ffc9a71461010a57806306fdde0314610132578063081812fc14610147578063095ea7b314610172575b5f80fd5b61011d610118366004610ef4565b610274565b60405190151581526020015b60405180910390f35b61013a61029e565b6040516101299190610f3d565b61015a610155366004610f4f565b61032d565b6040516001600160a01b039091168152602001610129565b610185610180366004610f81565b610354565b005b610185610195366004610fa9565b610363565b6101856101a8366004610fa9565b6103f1565b61015a6101bb366004610f4f565b610410565b6101d36101ce36600461106e565b61041a565b604051908152602001610129565b6101d36101ef3660046110cc565b610458565b61018561049d565b6007546001600160a01b031661015a565b61013a6104b0565b6101856102233660046110e5565b6104bf565b61018561023636600461111e565b6104ca565b61013a610249366004610f4f565b6104e2565b61011d61025c366004611195565b610563565b61018561026f3660046110cc565b610590565b5f6001600160e01b03198216632483248360e11b14806102985750610298826105cd565b92915050565b60605f80546102ac906111c6565b80601f01602080910402602001604051908101604052809291908181526020018280546102d8906111c6565b80156103235780601f106102fa57610100808354040283529160200191610323565b820191905f5260205f20905b81548152906001019060200180831161030657829003601f168201915b5050505050905090565b5f6103378261061c565b505f828152600460205260409020546001600160a01b0316610298565b61035f828233610654565b5050565b6001600160a01b03821661039157604051633250574960e11b81525f60048201526024015b60405180910390fd5b5f61039d838333610661565b9050836001600160a01b0316816001600160a01b0316146103eb576040516364283d7b60e01b81526001600160a01b0380861660048301526024820184905282166044820152606401610388565b50505050565b61040b83838360405180602001604052805f8152506104ca565b505050565b5f6102988261061c565b5f610423610753565b600160085f82825461043591906111fe565b90915550506008546104478482610780565b6104518184610799565b9392505050565b5f6001600160a01b038216610482576040516322718ad960e21b81525f6004820152602401610388565b506001600160a01b03165f9081526003602052604090205490565b6104a5610753565b6104ae5f6107e8565b565b6060600180546102ac906111c6565b61035f338383610839565b6104d5848484610363565b6103eb3385858585610900565b60606104ed8261061c565b505f61050360408051602081019091525f815290565b90505f61050f84610a28565b905081515f03610520579392505050565b80511561055257818160405160200161053a929190611234565b60405160208183030381529060405292505050919050565b61055b84610ac7565b949350505050565b6001600160a01b039182165f90815260056020908152604080832093909416825291909152205460ff1690565b610598610753565b6001600160a01b0381166105c157604051631e4fbdf760e01b81525f6004820152602401610388565b6105ca816107e8565b50565b5f6001600160e01b031982166380ac58cd60e01b14806105fd57506001600160e01b03198216635b5e139f60e01b145b8061029857506301ffc9a760e01b6001600160e01b0319831614610298565b5f818152600260205260408120546001600160a01b03168061029857604051637e27328960e01b815260048101849052602401610388565b61040b8383836001610b37565b5f828152600260205260408120546001600160a01b039081169083161561068d5761068d818486610c3b565b6001600160a01b038116156106c7576106a85f855f80610b37565b6001600160a01b0381165f90815260036020526040902080545f190190555b6001600160a01b038516156106f5576001600160a01b0385165f908152600360205260409020805460010190555b5f8481526002602052604080822080546001600160a01b0319166001600160a01b0389811691821790925591518793918516917fddf252ad1be2c89b69c2b068fc378daa952ba7f163c4a11628f55a4df523b3ef91a4949350505050565b6007546001600160a01b031633146104ae5760405163118cdaa760e01b8152336004820152602401610388565b61035f828260405180602001604052805f815250610c9f565b5f8281526006602052604090206107b0828261128c565b506040518281527ff8e1a15aba9398e019f0b49df1a4fde98ee17ae345cb5f6b5e2c27f5033e8ce79060200160405180910390a15050565b600780546001600160a01b038381166001600160a01b0319831681179093556040519116919082907f8be0079c531659141344cd1fd0a4f28419497f9722a3daafe3b4186f6b6457e0905f90a35050565b6001600160a01b0383166108625760405163a9fbf51f60e01b81525f6004820152602401610388565b6001600160a01b03821661089457604051630b61174360e31b81526001600160a01b0383166004820152602401610388565b6001600160a01b038381165f81815260056020908152604080832094871680845294825291829020805460ff191686151590811790915591519182527f17307eab39ab6107e8899845ad3d59bd9653f200f220920489ca2b5937696c31910160405180910390a3505050565b6001600160a01b0383163b15610a2157604051630a85bd0160e11b81526001600160a01b0384169063150b7a0290610942908890889087908790600401611347565b6020604051808303815f875af192505050801561097c575060408051601f3d908101601f1916820190925261097991810190611383565b60015b6109e3573d8080156109a9576040519150601f19603f3d011682016040523d82523d5f602084013e6109ae565b606091505b5080515f036109db57604051633250574960e11b81526001600160a01b0385166004820152602401610388565b805160208201fd5b6001600160e01b03198116630a85bd0160e11b14610a1f57604051633250574960e11b81526001600160a01b0385166004820152602401610388565b505b5050505050565b5f818152600660205260409020805460609190610a44906111c6565b80601f0160208091040260200160405190810160405280929190818152602001828054610a70906111c6565b8015610abb5780601f10610a9257610100808354040283529160200191610abb565b820191905f5260205f20905b815481529060010190602001808311610a9e57829003601f168201915b50505050509050919050565b6060610ad28261061c565b505f610ae860408051602081019091525f815290565b90505f815111610b065760405180602001604052805f815250610451565b80610b1084610cb6565b604051602001610b21929190611234565b6040516020818303038152906040529392505050565b8080610b4b57506001600160a01b03821615155b15610c0c575f610b5a8461061c565b90506001600160a01b03831615801590610b865750826001600160a01b0316816001600160a01b031614155b8015610b995750610b978184610563565b155b15610bc25760405163a9fbf51f60e01b81526001600160a01b0384166004820152602401610388565b8115610c0a5783856001600160a01b0316826001600160a01b03167f8c5be1e5ebec7d5bd14f71427d1e84f3dd0314c0f7b2291e5b200ac8c7c3b92560405160405180910390a45b505b50505f90815260046020526040902080546001600160a01b0319166001600160a01b0392909216919091179055565b610c46838383610d46565b61040b576001600160a01b038316610c7457604051637e27328960e01b815260048101829052602401610388565b60405163177e802f60e01b81526001600160a01b038316600482015260248101829052604401610388565b610ca98383610da7565b61040b335f858585610900565b60605f610cc283610e08565b60010190505f8167ffffffffffffffff811115610ce157610ce1610fe3565b6040519080825280601f01601f191660200182016040528015610d0b576020820181803683370190505b5090508181016020015b5f19016f181899199a1a9b1b9c1cb0b131b232b360811b600a86061a8153600a8504945084610d1557509392505050565b5f6001600160a01b0383161580159061055b5750826001600160a01b0316846001600160a01b03161480610d7f5750610d7f8484610563565b8061055b5750505f908152600460205260409020546001600160a01b03908116911614919050565b6001600160a01b038216610dd057604051633250574960e11b81525f6004820152602401610388565b5f610ddc83835f610661565b90506001600160a01b0381161561040b576040516339e3563760e11b81525f6004820152602401610388565b5f8072184f03e93ff9f4daa797ed6e38ed64bf6a1f0160401b8310610e465772184f03e93ff9f4daa797ed6e38ed64bf6a1f0160401b830492506040015b6d04ee2d6d415b85acef81000000008310610e72576d04ee2d6d415b85acef8100000000830492506020015b662386f26fc100008310610e9057662386f26fc10000830492506010015b6305f5e1008310610ea8576305f5e100830492506008015b6127108310610ebc57612710830492506004015b60648310610ece576064830492506002015b600a83106102985760010192915050565b6001600160e01b0319811681146105ca575f80fd5b5f60208284031215610f04575f80fd5b813561045181610edf565b5f81518084528060208401602086015e5f602082860101526020601f19601f83011685010191505092915050565b602081525f6104516020830184610f0f565b5f60208284031215610f5f575f80fd5b5035919050565b80356001600160a01b0381168114610f7c575f80fd5b919050565b5f8060408385031215610f92575f80fd5b610f9b83610f66565b946020939093013593505050565b5f805f60608486031215610fbb575f80fd5b610fc484610f66565b9250610fd260208501610f66565b929592945050506040919091013590565b634e487b7160e01b5f52604160045260245ffd5b5f8067ffffffffffffffff84111561101157611011610fe3565b50604051601f19601f85018116603f0116810181811067ffffffffffffffff8211171561104057611040610fe3565b604052838152905080828401851015611057575f80fd5b838360208301375f60208583010152509392505050565b5f806040838503121561107f575f80fd5b61108883610f66565b9150602083013567ffffffffffffffff8111156110a3575f80fd5b8301601f810185136110b3575f80fd5b6110c285823560208401610ff7565b9150509250929050565b5f602082840312156110dc575f80fd5b61045182610f66565b5f80604083850312156110f6575f80fd5b6110ff83610f66565b915060208301358015158114611113575f80fd5b809150509250929050565b5f805f8060808587031215611131575f80fd5b61113a85610f66565b935061114860208601610f66565b925060408501359150606085013567ffffffffffffffff81111561116a575f80fd5b8501601f8101871361117a575f80fd5b61118987823560208401610ff7565b91505092959194509250565b5f80604083850312156111a6575f80fd5b6111af83610f66565b91506111bd60208401610f66565b90509250929050565b600181811c908216806111da57607f821691505b6020821081036111f857634e487b7160e01b5f52602260045260245ffd5b50919050565b8082018082111561029857634e487b7160e01b5f52601160045260245ffd5b5f81518060208401855e5f93019283525090919050565b5f61055b611242838661121d565b8461121d565b601f82111561040b57805f5260205f20601f840160051c8101602085101561126d5750805b601f840160051c820191505b81811015610a21575f8155600101611279565b815167ffffffffffffffff8111156112a6576112a6610fe3565b6112ba816112b484546111c6565b84611248565b6020601f8211600181146112ec575f83156112d55750848201515b5f19600385901b1c1916600184901b178455610a21565b5f84815260208120601f198516915b8281101561131b57878501518255602094850194600190920191016112fb565b508482101561133857868401515f19600387901b60f8161c191681555b50505050600190811b01905550565b6001600160a01b03858116825284166020820152604081018390526080606082018190525f9061137990830184610f0f565b9695505050505050565b5f60208284031215611393575f80fd5b815161045181610edf56fea264697066735822122050b42ccc8b729df490262e040883af108b7bdaa36e11c8dbc6528c091d349f1564736f6c634300081a0033",
  "linkReferences": {},
  "deployedLinkReferences": {}
}