{
  "_format": "hh-sol-artifact-1",
  "contractName": "Staking",
  "sourceName": "contracts/Staking.sol",
  "abi": [
    {
      "inputs": [
        {
          "internalType": "address",
          "name": "tokenAddress",
          "type": "address"
        },
        {
          "internalType": "address",
          "name": "priceConsumerAddress",
          "type": "address"
        }
      ],
      "stateMutability": "nonpayable",
      "type": "constructor"
    },
    {
      "inputs": [
        {
          "internalType": "address",
          "name": "owner",
          "type": "address"
        }
      ],
      "name": "OwnableInvalidOwner",
      "type": "error"
    },
    {
      "inputs": [
        {
          "internalType": "address",
          "name": "account",
          "type": "address"
        }
      ],
      "name": "OwnableUnauthorizedAccount",
      "type": "error"
    },
    {
      "inputs": [],
      "name": "ReentrancyGuardReentrantCall",
      "type": "error"
    },
    {
      "inputs": [
        {
          "internalType": "address",
          "name": "token",
          "type": "address"
        }
      ],
      "name": "SafeERC20FailedOperation",
      "type": "error"
    },
    {
      "anonymous": false,
      "inputs": [
        {
          "indexed": true,
          "internalType": "address",
          "name": "previousOwner",
          "type": "address"
        },
        {
          "indexed": true,
          "internalType": "address",
          "name": "newOwner",
          "type": "address"
        }
      ],
      "name": "OwnershipTransferred",
      "type": "event"
    },
    {
      "anonymous": false,
      "inputs": [
        {
          "indexed": true,
          "internalType": "address",
          "name": "user",
          "type": "address"
        },
        {
          "indexed": false,
          "internalType": "uint256",
          "name": "amount",
          "type": "uint256"
        }
      ],
      "name": "RewardsClaimed",
      "type": "event"
    },
    {
      "anonymous": false,
      "inputs": [
        {
          "indexed": false,
          "internalType": "uint256",
          "name": "amount",
          "type": "uint256"
        }
      ],
      "name": "RewardsFunded",
      "type": "event"
    },
    {
      "anonymous": false,
      "inputs": [
        {
          "indexed": true,
          "internalType": "address",
          "name": "user",
          "type": "address"
        },
        {
          "indexed": false,
          "internalType": "uint256",
          "name": "amount",
          "type": "uint256"
        }
      ],
      "name": "Staked",
      "type": "event"
    },
    {
      "anonymous": false,
      "inputs": [
        {
          "indexed": true,
          "internalType": "address",
          "name": "user",
          "type": "address"
        },
        {
          "indexed": false,
          "internalType": "uint256",
          "name": "amount",
          "type": "uint256"
        },
        {
          "indexed": false,
          "internalType": "uint256",
          "name": "rewardsPaid",
          "type": "uint256"
        }
      ],
      "name": "Unstaked",
      "type": "event"
    },
    {
      "inputs": [],
      "name": "BASE_APY_BPS",
      "outputs": [
        {
          "internalType": "uint256",
          "name": "",
          "type": "uint256"
        }
      ],
      "stateMutability": "view",
      "type": "function"
    },
    {
      "inputs": [],
      "name": "BASIS_POINTS",
      "outputs": [
        {
          "internalType": "uint256",
          "name": "",
          "type": "uint256"
        }
      ],
      "stateMutability": "view",
      "type": "function"
    },
    {
      "inputs": [],
      "name": "BONUS_APY_BPS",
      "outputs": [
        {
          "internalType": "uint256",
          "name": "",
          "type": "uint256"
        }
      ],
      "stateMutability": "view",
      "type": "function"
    },
    {
      "inputs": [],
      "name": "DISCOUNT_APY_BPS",
      "outputs": [
        {
          "internalType": "uint256",
          "name": "",
          "type": "uint256"
        }
      ],
      "stateMutability": "view",
      "type": "function"
    },
    {
      "inputs": [],
      "name": "YEAR_IN_SECONDS",
      "outputs": [
        {
          "internalType": "uint256",
          "name": "",
          "type": "uint256"
        }
      ],
      "stateMutability": "view",
      "type": "function"
    },
    {
      "inputs": [],
      "name": "claimRewards",
      "outputs": [],
      "stateMutability": "nonpayable",
      "type": "function"
    },
    {
      "inputs": [],
      "name": "eduToken",
      "outputs": [
        {
          "internalType": "contract IERC20",
          "name": "",
          "type": "address"
        }
      ],
      "stateMutability": "view",
      "type": "function"
    },
    {
      "inputs": [
        {
          "internalType": "uint256",
          "name": "amount",
          "type": "uint256"
        }
      ],
      "name": "fundRewards",
      "outputs": [],
      "stateMutability": "nonpayable",
      "type": "function"
    },
    {
      "inputs": [],
      "name": "getCurrentApyBps",
      "outputs": [
        {
          "internalType": "uint256",
          "name": "",
          "type": "uint256"
        }
      ],
      "stateMutability": "view",
      "type": "function"
    },
    {
      "inputs": [
        {
          "internalType": "address",
          "name": "account",
          "type": "address"
        }
      ],
      "name": "getPendingRewards",
      "outputs": [
        {
          "internalType": "uint256",
          "name": "",
          "type": "uint256"
        }
      ],
      "stateMutability": "view",
      "type": "function"
    },
    {
      "inputs": [
        {
          "internalType": "address",
          "name": "account",
          "type": "address"
        }
      ],
      "name": "getStakedBalance",
      "outputs": [
        {
          "internalType": "uint256",
          "name": "",
          "type": "uint256"
        }
      ],
      "stateMutability": "view",
      "type": "function"
    },
    {
      "inputs": [
        {
          "internalType": "address",
          "name": "account",
          "type": "address"
        }
      ],
      "name": "getUserInfo",
      "outputs": [
        {
          "components": [
            {
              "internalType": "uint256",
              "name": "amount",
              "type": "uint256"
            },
            {
              "internalType": "uint256",
              "name": "pendingRewards",
              "type": "uint256"
            },
            {
              "internalType": "uint256",
              "name": "lastUpdate",
              "type": "uint256"
            }
          ],
          "internalType": "struct Staking.UserInfo",
          "name": "",
          "type": "tuple"
        }
      ],
      "stateMutability": "view",
      "type": "function"
    },
    {
      "inputs": [],
      "name": "owner",
      "outputs": [
        {
          "internalType": "address",
          "name": "",
          "type": "address"
        }
      ],
      "stateMutability": "view",
      "type": "function"
    },
    {
      "inputs": [],
      "name": "priceConsumer",
      "outputs": [
        {
          "internalType": "contract PriceConsumer",
          "name": "",
          "type": "address"
        }
      ],
      "stateMutability": "view",
      "type": "function"
    },
    {
      "inputs": [],
      "name": "renounceOwnership",
      "outputs": [],
      "stateMutability": "nonpayable",
      "type": "function"
    },
    {
      "inputs": [],
      "name": "rewardReserve",
      "outputs": [
        {
          "internalType": "uint256",
          "name": "",
          "type": "uint256"
        }
      ],
      "stateMutability": "view",
      "type": "function"
    },
    {
      "inputs": [
        {
          "internalType": "uint256",
          "name": "amount",
          "type": "uint256"
        }
      ],
      "name": "stake",
      "outputs": [],
      "stateMutability": "nonpayable",
      "type": "function"
    },
    {
      "inputs": [],
      "name": "totalStaked",
      "outputs": [
        {
          "internalType": "uint256",
          "name": "",
          "type": "uint256"
        }
      ],
      "stateMutability": "view",
      "type": "function"
    },
    {
      "inputs": [
        {
          "internalType": "address",
          "name": "newOwner",
          "type": "address"
        }
      ],
      "name": "transferOwnership",
      "outputs": [],
      "stateMutability": "nonpayable",
      "type": "function"
    },
    {
      "inputs": [
        {
          "internalType": "uint256",
          "name": "amount",
          "type": "uint256"
        }
      ],
      "name": "unstake",
      "outputs": [],
      "stateMutability": "nonpayable",
      "type": "function"
    }
  ],
  "bytecode": "0x60c060405234801561000f575f80fd5b50604051610fea380380610fea83398101604081905261002e91610190565b338061005457604051631e4fbdf760e01b81525f60048201526024015b60405180910390fd5b61005d81610126565b5060017f9b779b17422d0df92223018b32b4d1fa46e071723d6817e2486d003becc55f00556001600160a01b0382166100c85760405162461bcd60e51b815260206004820152600d60248201526c24b73b30b634b2103a37b5b2b760991b604482015260640161004b565b6001600160a01b03811661010f5760405162461bcd60e51b815260206004820152600e60248201526d496e76616c6964206f7261636c6560901b604482015260640161004b565b6001600160a01b039182166080521660a0526101c1565b5f80546001600160a01b038381166001600160a01b0319831681178455604051919092169283917f8be0079c531659141344cd1fd0a4f28419497f9722a3daafe3b4186f6b6457e09190a35050565b80516001600160a01b038116811461018b575f80fd5b919050565b5f80604083850312156101a1575f80fd5b6101aa83610175565b91506101b860208401610175565b90509250929050565b60805160a051610de56102055f395f81816101880152610abf01525f8181610218015281816104170152818161057b0152818161069801526107930152610de55ff3fe608060405234801561000f575f80fd5b5060043610610127575f3560e01c806393707a19116100a9578063d7ab56571161006e578063d7ab565714610281578063e174d20914610289578063e1f1c4a714610292578063f2fde38b1461029b578063f6ed2017146102ae575f80fd5b806393707a191461024a5780639d1446d41461025d578063a694fc3a14610265578063cab64bcd14610278578063d006601a14610281575f80fd5b8063715018a6116100ef578063715018a6146101f75780637847ea53146101ff578063817b1cd21461020a5780638d878889146102135780638da5cb5b1461023a575f80fd5b80632e17de781461012b578063372500ab146101405780633a02a42d14610148578063461a758c146101835780636386c1c7146101c2575b5f80fd5b61013e610139366004610c89565b6102c1565b005b61013e610494565b610170610156366004610ca0565b6001600160a01b03165f9081526003602052604090205490565b6040519081526020015b60405180910390f35b6101aa7f000000000000000000000000000000000000000000000000000000000000000081565b6040516001600160a01b03909116815260200161017a565b6101d56101d0366004610ca0565b6105f1565b604080518251815260208084015190820152918101519082015260600161017a565b61013e610653565b6101706301e1338081565b61017060015481565b6101aa7f000000000000000000000000000000000000000000000000000000000000000081565b5f546001600160a01b03166101aa565b61013e610258366004610c89565b610664565b61017061070c565b61013e610273366004610c89565b61071a565b61017060025481565b61017060c881565b6101706103e881565b61017061271081565b61013e6102a9366004610ca0565b610806565b6101706102bc366004610ca0565b610840565b6102c9610900565b5f81116102f15760405162461bcd60e51b81526004016102e890610ccd565b60405180910390fd5b6102fa3361091b565b335f90815260036020526040902080548211156103595760405162461bcd60e51b815260206004820152601b60248201527f496e73756666696369656e74207374616b65642062616c616e6365000000000060448201526064016102e8565b60018101546002548111156103b05760405162461bcd60e51b815260206004820152601b60248201527f496e73756666696369656e74207265776172642072657365727665000000000060448201526064016102e8565b82825f015f8282546103c29190610d16565b925050819055508260015f8282546103da9190610d16565b90915550505f60018301819055600280548392906103f9908490610d16565b9091555061043e90503361040d8386610d2f565b6001600160a01b037f00000000000000000000000000000000000000000000000000000000000000001691906109c5565b604080518481526020810183905233917f7fc4727e062e336010f2c282598ef5f14facb3de68cf8195c2f23e1454b2b74e910160405180910390a2505061049160015f80516020610d9083398151915255565b50565b61049c610900565b6104a53361091b565b335f9081526003602052604090206001810154806104fc5760405162461bcd60e51b81526020600482015260146024820152734e6f207265776172647320617661696c61626c6560601b60448201526064016102e8565b80600254101561054e5760405162461bcd60e51b815260206004820152601b60248201527f496e73756666696369656e74207265776172642072657365727665000000000060448201526064016102e8565b5f82600101819055508060025f8282546105689190610d16565b909155506105a290506001600160a01b037f00000000000000000000000000000000000000000000000000000000000000001633836109c5565b60405181815233907ffc30cddea38e2bf4d6ea7d3f9ed3b6ad7f176419f4963bd81318067a4aee73fe9060200160405180910390a250506105ef60015f80516020610d9083398151915255565b565b61061260405180606001604052805f81526020015f81526020015f81525090565b506001600160a01b03165f90815260036020908152604091829020825160608101845281548152600182015492810192909252600201549181019190915290565b61065b6109ff565b6105ef5f610a2b565b61066c6109ff565b5f811161068b5760405162461bcd60e51b81526004016102e890610ccd565b6106c06001600160a01b037f000000000000000000000000000000000000000000000000000000000000000016333084610a7a565b8060025f8282546106d19190610d2f565b90915550506040518181527fe42dde25409a3e8c7c119c1c722610d9e9bd96e73e3cead774863c9ffdd870d69060200160405180910390a150565b5f610715610ab6565b905090565b610722610900565b5f81116107415760405162461bcd60e51b81526004016102e890610ccd565b61074a3361091b565b335f9081526003602052604081208054839290610768908490610d2f565b925050819055508060015f8282546107809190610d2f565b909155506107bb90506001600160a01b037f000000000000000000000000000000000000000000000000000000000000000016333084610a7a565b60405181815233907f9e71bc8eea02a63969f509818f2dafb9254532904319f9dbda79b67bd34a5f3d9060200160405180910390a261049160015f80516020610d9083398151915255565b61080e6109ff565b6001600160a01b03811661083757604051631e4fbdf760e01b81525f60048201526024016102e8565b61049181610a2b565b6001600160a01b0381165f90815260036020908152604080832081516060810183528154815260018201549381019390935260020154908201819052158061088757508051155b15610896576020015192915050565b5f8160400151426108a79190610d16565b90505f6127106301e133806108ba610ab6565b85516108c7908690610d42565b6108d19190610d42565b6108db9190610d59565b6108e59190610d59565b90508083602001516108f79190610d2f565b95945050505050565b610908610b8b565b60025f80516020610d9083398151915255565b6001600160a01b0381165f9081526003602052604081206002810154909103610948574260029091015550565b8054156109bb575f8160020154426109609190610d16565b90505f6127106301e13380610973610ab6565b8554610980908690610d42565b61098a9190610d42565b6109949190610d59565b61099e9190610d59565b905080836001015f8282546109b39190610d2f565b909155505050505b4260029091015550565b6109d28383836001610bba565b6109fa57604051635274afe760e01b81526001600160a01b03841660048201526024016102e8565b505050565b5f546001600160a01b031633146105ef5760405163118cdaa760e01b81523360048201526024016102e8565b5f80546001600160a01b038381166001600160a01b0319831681178455604051919092169283917f8be0079c531659141344cd1fd0a4f28419497f9722a3daafe3b4186f6b6457e09190a35050565b610a88848484846001610c1c565b610ab057604051635274afe760e01b81526001600160a01b03851660048201526024016102e8565b50505050565b5f806103e890507f00000000000000000000000000000000000000000000000000000000000000006001600160a01b0316638e15f4736040518163ffffffff1660e01b8152600401602060405180830381865afa925050508015610b37575060408051601f3d908101601f19168201909252610b3491810190610d78565b60015b610b4057919050565b6445d964b8008112610b5e57610b5760c883610d2f565b9150610b85565b5f81138015610b7257506422ecb25c008113155b15610b8557610b8260c883610d16565b91505b50919050565b5f80516020610d90833981519152546002036105ef57604051633ee5aeb560e01b815260040160405180910390fd5b60405163a9059cbb60e01b5f8181526001600160a01b038616600452602485905291602083604481808b5af1925060015f51148316610c10578383151615610c04573d5f823e3d81fd5b5f873b113d1516831692505b60405250949350505050565b6040516323b872dd60e01b5f8181526001600160a01b038781166004528616602452604485905291602083606481808c5af1925060015f51148316610c78578383151615610c6c573d5f823e3d81fd5b5f883b113d1516831692505b604052505f60605295945050505050565b5f60208284031215610c99575f80fd5b5035919050565b5f60208284031215610cb0575f80fd5b81356001600160a01b0381168114610cc6575f80fd5b9392505050565b6020808252818101527f416d6f756e74206d7573742062652067726561746572207468616e207a65726f604082015260600190565b634e487b7160e01b5f52601160045260245ffd5b81810381811115610d2957610d29610d02565b92915050565b80820180821115610d2957610d29610d02565b8082028115828204841417610d2957610d29610d02565b5f82610d7357634e487b7160e01b5f52601260045260245ffd5b500490565b5f60208284031215610d88575f80fd5b505191905056fe9b779b17422d0df92223018b32b4d1fa46e071723d6817e2486d003becc55f00a2646970667358221220044328178ca5a422378b33e2b5eb27a6ac77cf3e8b06840db78d82741cca9ff964736f6c634300081a0033",
  "linkReferences": {},
  "deployedLinkReferences": {}
}