{
  "_format": "hh-sol-artifact-1",
  "contractName": "PriceConsumer",
  "sourceName": "contracts/PriceConsumer.sol",
  "abi": [
    {
      "inputs": [
        {
          "internalType": "address",
          "name": "aggregatorAddress",
          "type": "address"
        }
      ],
      "stateMutability": "nonpayable",
      "type": "constructor"
    },
    {
      "inputs": [],
      "name": "getLatestPrice",
      "outputs": [
        {
          "internalType": "int256",
          "name": "",
          "type": "int256"
        }
      ],
      "stateMutability": "view",
      "type": "function"
    },
    {
      "inputs": [],
      "name": "getPriceFeedDecimals",
      "outputs": [
        {
          "internalType": "uint8",
          "name": "",
          "type": "uint8"
        }
      ],
      "stateMutability": "view",
      "type": "function"
    },
    {
      "inputs": [],
      "name": "priceFeed",
      "outputs": [
        {
          "internalType": "contract AggregatorV3Interface",
          "name": "",
          "type": "address"
        }
      ],
      "stateMutability": "view",
      "type": "function"
    }
  ],
  "bytecode": "0x60a060405234801561000f575f80fd5b5060405161037238038061037283398101604081905261002e9161008e565b6001600160a01b03811661007d5760405162461bcd60e51b815260206004820152601260248201527124b73b30b634b21030b3b3b932b3b0ba37b960711b604482015260640160405180910390fd5b6001600160a01b03166080526100bb565b5f6020828403121561009e575f80fd5b81516001600160a01b03811681146100b4575f80fd5b9392505050565b6080516102936100df5f395f818160670152818160ba015261014101526102935ff3fe608060405234801561000f575f80fd5b506004361061003f575f3560e01c8063422f8c0a14610043578063741bef1a146100625780638e15f473146100a1575b5f80fd5b61004b6100b7565b60405160ff90911681526020015b60405180910390f35b6100897f000000000000000000000000000000000000000000000000000000000000000081565b6040516001600160a01b039091168152602001610059565b6100a961013d565b604051908152602001610059565b5f7f00000000000000000000000000000000000000000000000000000000000000006001600160a01b031663313ce5676040518163ffffffff1660e01b8152600401602060405180830381865afa158015610114573d5f803e3d5ffd5b505050506040513d601f19601f8201168201806040525081019061013891906101ca565b905090565b5f807f00000000000000000000000000000000000000000000000000000000000000006001600160a01b031663feaf968c6040518163ffffffff1660e01b815260040160a060405180830381865afa15801561019b573d5f803e3d5ffd5b505050506040513d601f19601f820116820180604052508101906101bf919061020f565b509195945050505050565b5f602082840312156101da575f80fd5b815160ff811681146101ea575f80fd5b9392505050565b805169ffffffffffffffffffff8116811461020a575f80fd5b919050565b5f805f805f60a08688031215610223575f80fd5b61022c866101f1565b60208701516040880151606089015192975090955093509150610251608087016101f1565b9050929550929590935056fea2646970667358221220bcf841203189ee3834acd02b1b425463e0893c028338b5783142215721021b0764736f6c634300081a0033",
  "linkReferences": {},
  "deployedLinkReferences": {}
}